:020000040000FA
:06000000CAEF3FF0120000
:0600080004EF08F01200F5
:060018000CEF08F01200DD
:06100000CAEF3FF01200F0
:06100800F1EF3BF01200C5
:061018003CEF3CF0120069
:06102A000200FB7F000044
:101030004F01000002000000F87F0000FD000000EA
:0410400003000000A9
:0C1044005EEC0DF0FB0EDBCFF3FFDB06D3
:10105000F35000090AE0ACEC0DF0FA0E17EC0EF0BC
:10106000F3E1151CF1E1010E01D0000E8DEF0DF042
:101070005EEC0DF03B0EE12402E3E168E652E16E26
:10108000010EDB6A020EDB6AF90EDBCFF6FFFA0E09
:10109000DBCFF7FFFB0EDBCFF8FF0800F550DF6E6C
:1010A000DF5002E1B1EF0CF0250EDF5C02E0A4EFAF
:1010B0000CF0030EDB6A040EDB6A050EDB6A060E1B
:1010C000DB6A070EDB6AC6EC0CF02D0EDF5C0CE071
:1010D0002B0EDF5C09E0200EDF5C06E0230EDF5CF8
:1010E00003E0300EDF5C1AE1DF50300A14E0130A2F
:1010F0000FE0030A0AE00B0A05E0060AE4E1030E2A
:10110000DB80E1D7030EDB82DED7030EDB84DBD787
:10111000030EDB86D8D7030EDB88D5D72A0EDF5C1B
:101120001BE1C2EC0CF010EC0DF010E0030EDB80C4
:1011300006680768130EDBCF0BF0140EDBCF0CF044
:1011400045EC3FF0040E04C0DBFF03D0130EF9ECB6
:101150000CF0C6EC0CF00BD0090EDB6A67EC0DF05E
:1011600003E0DBEC0DF0FAD7090EF9EC0CF0030EFE
:10117000DBB0DB982E0EDF5C1BE1C6EC0CF02A0E18
:10118000DF5C0BE1C2EC0CF010EC0DF003E1130E90
:101190004BEC0DF0C6EC0CF00BD0090EDB6A67ECE3
:1011A0000DF003E0DBEC0DF0FAD7090E4BEC0DF07F
:1011B000680EDF5C07E1C6EC0CF0680EDF5C1DE139
:1011C000030E18D0740EDF5C17E07A0EDF5C14E0BB
:1011D000480EDF5C06E0540EDF5C03E05A0EDF5C75
:1011E00002E1020E07D06C0EDF5C03E06A0EDF5CEA
:1011F00004E1010E9EEC0DF0C9DBDF506E0A01E147
:101200007FD31E0A01E192D1200A01E18FD13F0A6A
:1012100001E149D11A0A01E146D10D0A01E143D1A8
:10122000200A01E140D13A0A01E13DD1200A01E161
:101230003AD1260A01E135D10D0A01E132D11A0A6B
:1012400001E1D9D0200A4AE0300A1FE0460A0EE048
:10125000250A01E083D3D950F90FE96EFF0EDA2099
:10126000EA6E010EEE5E000EEE5AEE5AACEC0DF098
:10127000250EE66E95DB03E1151C01E169D3A8ECB0
:101280000DF001E26BD3DB2A69D3080EDB6A040E92
:10129000DB50010806E2040EDB0470EC0DF0DB50BD
:1012A0008BDB080EDB5009E0030EDB50010B05E180
:1012B00072DB01E04DD3080EDB6A64DBEFCFDFFFAA
:1012C00020EC0EF003E1151C01E142D3A8EC0DF077
:1012D00001E3DB2A60DB01E141D33AD3070EDB50A7
:1012E00002080FE1ECEC0DF0030EB3EC0DF00E0E66
:1012F000EECFDBFF0F0EEECFDBFF100EEECFDBFFEE
:1013000020D0F70EDBCF17F0F80EDBCF18F0020E6F
:10131000175E000E185AF70E17C0DBFFF80E18C044
:10132000DBFF17C0E9FF18C0EAFFA3EC0DF0166A57
:101330000E0E14C0DBFF0F0E15C0DBFF100E16C023
:10134000DBFF0E0EDBCFE6FF0F0EDBCFE6FF100E4E
:10135000DBCFE6FFABEC3DF0E552E552E552130E74
:1013600005C0DBFF140E06C0DBFF060EDB5005E0F8
:10137000130EE7EC0DF001E26ADB0BEC0EF002E27B
:10138000130E37DBCEEC0DF006E0040EE7EC0DF0AB
:1013900002E2050E2EDB030EDBB005D0FCDA01E025
:1013A000D7D2080EDB6A090EDB6A0E0EDBCFF6FF22
:1013B0000F0EDBCFF7FF100EDBCFF8FF0800F55064
:1013C000DF6EDF5014E011EC0EF011E220EC0EF0B5
:1013D00003E1151C01E1BCD2BBDB01E3DB2A090EF2
:1013E000DB2AD9500E0FE96E000ECBDBE7D7D3DA3C
:1013F00001E1B4D2ADD2C6DA110EEECFDBFF120E90
:10140000EDCFDBFF110EDBCFE6FF120EDBCFE6FFE9
:101410009DEC3DF0E552E552130EF3CFDBFF140EC9
:10142000F4CFDBFF060EDB5004E0130ED0DB01E24D
:101430000EDB0BEC0EF002E2130EDBDAAFDB05E0A5
:10144000040EC5DB02E2050ED4DA030EDBB005D0D4
:10145000A2DA01E07DD2080EDB6A090EDB6A110E0A
:10146000DBCFE9FF120EDBCFEAFFEFCFDFFFDF506C
:1014700014E0D7DB12E2E4DB03E1151C01E168D2E2
:1014800067DB01E3DB2A090EDB2A110EDB2ADBCF47
:10149000E9FF120EE8E3DB2AE6D77DDA01E15ED24E
:1014A00057D2030EDB8E070EDB0410E195DB040E32
:1014B0005ADB0A0EEECFDBFF0B0EEECFDBFF0C0E7E
:1014C000EECFDBFF0D0EEECFDBFF6CD0070EDB5057
:1014D00003082CE1030EDBAE0DD0B2DA020E76DA91
:1014E000EFCF14F0156A166A176A14AE39D0156872
:1014F000166835D0F70EDBCF15F0F80EDBCF16F0FF
:10150000020E155E000E165AF70E15C0DBFFF80E20
:1015100016C0DBFF15C0E9FF16C0EAFFEFCF14F0DD
:101520000A0E14C0DBFF0B0EDB6A38D0070EDB504F
:10153000020809E1030EDBAE04D059DB16AE10D071
:101540000ED055DB0DD0030EDBAE12D079DA020ED1
:101550003DDAF9DA166A176A15AE02D0166817680E
:10156000E2DA0C0E16C0DBFF0D0E17C0DBFF1AD03F
:10157000F70EDBCF16F0F80EDBCF17F0020E165E7B
:10158000000E175AF70E16C0DBFFF80E17C0DBFF70
:1015900016C0E9FF17C0EAFFD6DAC5DA0C0EDB6A1F
:1015A0000D0EDB6A060EDB5005E1010EF36E050E33
:1015B000F3CFDBFF150EDB6A160EDB6AD950370F4F
:1015C000146E000EDA20156E390E14C0DBFF3A0ED1
:1015D00015C0DBFF380EDB6A080EDB6A0A0EAEDAD6
:1015E000DF50780A12E0200A10E0280A0CE0200AF6
:1015F0000AE03F0A06E00D0A02E0200A08E1020EB6
:1016000005D0080E03D0080EDF26100E97DA030E61
:10161000DBBE02D0DB92DB94DB50800B24E08ADA65
:10162000D890030EEB50000A08E6000EEE5C000EA8
:10163000EE58000EEE58000EEE5815E213DA096867
:101640000A680B680C680DEC3FF00A0E00C0DBFF67
:101650000B0E01C0DBFF0C0E02C0DBFF0D0E03C042
:10166000DBFF2D0E08D0030EDBA202D02B0E03D021
:10167000DBA408D0200EF36E170EF3CFDBFF150EA0
:10168000DB2A02D0170EDB6A050EDB5003E1B7D967
:1016900001E189D0CC0E146E7F0E156E000E166E11
:1016A000070EDBCF17F0186A196A1A6A17C009F01B
:1016B00018C00AF019C00BF01AC00CF0D3D972ECA4
:1016C0003FF014500024F36E15500120F46E1650B4
:1016D0000220F86EF4CFF7FFF3CFF6FF0800090EF3
:1016E000F5CFDBFF580EDF5C0FE1610EF36E090EE4
:1016F0007BD90AE3200E146E090EDBCFE7FF1450EE
:10170000E75E090EE7CFDBFF070EDBCF14F0156AAB
:10171000166A176A0FDA14C009F015C00AF016C06D
:101720000BF017C00CF0EECF04F0EECF05F0EECFCB
:1017300006F0EFCF07F072EC3FF007C0EDFF06C0F8
:10174000EDFF05C0EDFF04C0EFFF390EDBCFE9FF71
:10175000DB063A0EDBCFEAFF01E2DB06090EDBCF48
:10176000EFFF150EDB2A4BD995E1030EDBA61DD04A
:101770006F0EDF5C06E1C1D918E3150EDB285BDADA
:1017800014D0780EDF5C09E0580EDF5C06E0620ED4
:10179000DF5C03E0420EDF5C08E1020EF36E160E22
:1017A000F3CFDBFF02D0150EDB6A030EDB50100B0C
:1017B0000EE0040EDBCF14F0050EDB50D88014547D
:1017C00006E2060EDB5003E1040EDB5034DA95D955
:1017D0000AE2050EDBCFE7FF150EDB50E75E050ED4
:1017E000E7CFDBFF02D0050EDB6A040EDBCF14F07F
:1017F000160E45D9D880145414E2160EDBCFE6FF3E
:10180000150EDBCFE6FF040EDBCFE6FF050EDB5047
:10181000E552E75CE552D880E754E552D880E754BA
:101820005FD9030EDB50010B0BE1080EDB5008E023
:10183000B2D801E08DD0080EDB50BED8080EDB6AAE
:10184000170EDB5007E088D9170EF1D903E1151CFC
:1018500001E17ED0160EDB5016E07ED9300EE66E2A
:101860009FD802E1151C74E077D9DFCFE6FFCBECFF
:101870003EF0E552E552E552F4CF15F00001F31CBD
:1018800002E1151C65E0050EDBCF14F0160EDB50EF
:10189000D880145409E2050EDBCFE7FF160EDB50AB
:1018A000E75E050EE7CFDBFF300EE66E050ECBD907
:1018B0004FE1390EDB2ADBCFE9FF3A0E01E3DB2AE9
:1018C000DBCFEAFF090EEFCFDBFFDB500EE044D9A0
:1018D000090EADD902E1151C3BE0390EDB2ADBCF46
:1018E000E9FF3A0EEDE3DB2AEBD755D831E1160ECE
:1018F000DBCFE6FF080EC3D8E552E7245DD82ED033
:10190000070EDB50030A1CE0010A14E0030A07E09B
:101910007BD9DBCFEEFF020EDBCFEDFF1FD0F5D87A
:10192000196A17AE02D0186819682CD8BCD819C02B
:10193000EEFF14D0EAD817BE186824D8B4D80ED059
:1019400063D9DBCFEFFF0AD07BD905E1151C03E19A
:10195000F368F46810D0FCD801E3DB2A79D94DEFA5
:1019600008F0010EDBCF14F0020EDBCF15F014C02F
:10197000F3FF15C0F4FF3B0EE15C02E2E16AE552C1
:10198000E16ECBD029D9020EB3EF0DF061D908007A
:10199000F550DF6E1200200EE66E080E23EF0EF0FB
:1019A000CBEC3EF0E552E552E552F3CF14F0F4CF24
:1019B00015F00001F31C1200146E156AD950010FC6
:1019C0004DD91450EE261550ED221200185E000E6F
:1019D000195AF70E18C0DBFFF80E19C0DBFF18C04C
:1019E000E9FF19C0EAFF1200DBCFF4FFF350F45C0B
:1019F0001200DB50E76E040EE7CFDBFF12000A0E89
:101A0000DBCF14F00B0EDBCF15F00C0EDBCF16F096
:101A10000D0EDBCF17F01450151016101710120012
:101A2000130EEECFDBFF140EEDCFDBFF130EDBCF7B
:101A300014F0140EDBCF15F00001800E1514120007
:101A4000F70EDBCF18F0F80EDBCF19F01200050E01
:101A5000DB50E66ED950130F01D9E552E750EE6E18
:101A6000ED6A12000A0EDBCF04F00B0EDBCF05F09F
:101A70000C0EDBCF06F00D0EDBCF07F01200DBCF34
:101A8000E6FF150EDBCFE6FF050EDB50E552E7243F
:101A9000E552E7241200DB50CED8010EF36E060E9D
:101AA000F3CFDBFF1200EE50EFCFEAFFE96E16C076
:101AB000EEFF17C0EEFF18C0EEFF1200D9CFE6FF11
:101AC000DACFE6FFE1CFD9FFE2CFDAFF1200DFCFB6
:101AD000E6FFE66A96EC3FF0E552E552F35012005D
:101AE000E76E080EE7CFDBFF1200EECF14F0EECF6B
:101AF00015F0EFCF16F0176A1200050EDBCF14F0C9
:101B0000150EDB50D88014541200010EDBCF16F0F6
:101B1000020EDBCF17F0186A1200E552E5CFDAFFAC
:101B2000E7CFD9FF12000A0E14C0DBFF0B0E15C061
:101B3000DBFF1200D9500A0F2EEF0EF0F36E070EE6
:101B4000F3CFDBFF1200EECF14F0EFCF15F0120051
:101B5000010EDB2A020E1200FC0EDBCFE6FFFD0EAB
:101B6000DBCFE6FF1200145E000E155AF70E14C00C
:101B7000DBFFF80E15C0DBFF14C0E9FF15C0EAFF5C
:101B80001200DA20EA6EEF2AEECFF6FF000EEF2207
:101B9000EECFF7FFEF22EECFF8FF1200040EDBCFFF
:101BA000E6FF130EDB50E552E75C9ADFDB5004DF03
:101BB000060EDB501200090EDB500A0DF350DF2435
:101BC000D00FE76E090EE7CFDBFFC6EF0CF0DB505E
:101BD000F36E050EF4EF0CF0F70EDBCF14F0F80EF9
:101BE000DBCF15F01200DFCFE6FFD0EF0CF028DFDF
:101BF000030EECDE75EF0DF022EC08F0E552E55235
:101C0000E552E55200091200BDDEEE50EFCFEAFFCB
:101C1000E96E010E1200130EDB50F36E040EF4EFAA
:101C20000CF0040EDB50F36E090EF4EF0CF0DBCF7A
:101C3000E6FFD0EF0CF0E76E050EE7CFDBFF1200FA
:101C40008BDFF3EF0DF0DBCFE6FF86DFFCEF0DF06F
:101C5000D950F90FE96EFF0EC1EF0DF0E96E000EDD
:061C6000DA20EA6E12001A
:0A1C6600D9CFE6FFE1CFD9FFFD0E54
:101C7000DB50A86EFE0EDB50A96EA69EA69CA68425
:101C8000F29E550EA76EAA0EA76EA682A6B2FED72A
:101C9000A694F28EA650080B01E0010E00D0E5528A
:101CA000E7CFD9FF1200D9CFE6FFE1CFD9FFFE0E73
:101CB000DB50A96EA69CA69EA680A85000D0E55237
:101CC000E7CFD9FF12008450080B01E0010E00019C
:101CD000FC5D09E08450080B01E0010EFC6F84B646
:101CE00002D0010E02D0000E00D01200D9CFE6FFC4
:101CF000E1CFD9FF020EE126C282C2B2FED7C350A5
:101D0000DF6E010EC4CFDBFFDECF14F0DDCF15F0A8
:101D100014C0F3FF15C0F4FF020EE15C03E200D033
:101D2000E16AE552E16EE552E7CFD9FF1200060EF7
:101D3000C16E300E8A12CF0E9316B50EE66EDFEC32
:101D40000FF0E5529F909E901200D9CFE6FFE1CFB1
:101D5000D9FF050EE1268450080B01E0010E0001B9
:101D6000FC6FF66BE20EFA6F9280010EC26E3C0EB3
:101D7000C06EC08EDCDFD08EF28CF28EDE6ADD6A41
:101D8000DECF14F0DDCF15F0500E145C000E1558A8
:101D900019E20001F65101E0FCD7F65101E1FDD74F
:101DA00092DF00090AE09D90F29CF29E8A888A8A5E
:101DB000050EE15C01E3FED0FBD0DF2A010E01E35A
:101DC000DB2ADED780DF000901E0FCD700018A0EA4
:101DD000FA6FF76BF86BF96B2CEC36F0DE6ADD6AA4
:101DE000DECF14F0DDCF15F0330E145C000E155865
:101DF00048E2F8C0FBF07ADF030EF3CFDBFF040EFE
:101E0000F4CFDBFFDECF14F0DDCF15F0010E14248C
:101E1000E66EE66A28DFE552E552030EDBCFE6FF09
:101E2000DECF14F0DDCF15F0010ED8901436153644
:101E3000E806FBE1010E1424E66E15DFE552E552DB
:101E4000040EDBCFE6FFDECF14F0DDCF15F0010E80
:101E5000D89014361536E806FBE1020E1424E66E1F
:101E600002DFE552E5520001FB51F85D03E184A673
:101E700001D0F9D784A605D0DF2A010E01E3DB2AC1
:101E8000AFD784A6FED7E66A0EDFE552E76E020EF4
:101E9000E7CFDBFFDD0EE66E7F0EE66E000EE66E30
:101EA00028EC39F0E552E552E552DE6ADD6ADECF14
:101EB00014F0DDCF15F0020EDB50166E176A1650C7
:101EC000145C1750155863E2DECF14F0DDCF15F027
:101ED000010ED89014361536E806FBE1010E1424E5
:101EE000E66EE1DEE552E76E030EE7CFDBFFDECF05
:101EF00014F0DDCF15F0010ED89014361536E80633
:101F0000FBE1020E1424E66ECEDEE552E76E040E0F
:101F1000E7CFDBFF030EDBCFE6FF040EDBCFE6FFF0
:101F2000DECF14F0DDCF15F0010E1426000E1522C1
:101F300014C0E6FF15C0E6FFE90E166E7F0E176EA1
:101F4000186A16C0E6FF17C0E6FF18C0E6FFDECF2E
:101F500019F0DDCF1AF00A0E1A02F3CF1AF01902A7
:101F6000F3CF19F0F4501A26000E1926060E1A2285
:101F700019C0E6FF1AC0E6FF26EC3EF01B6E090E04
:101F8000E15E1B50DF2A010E01E3DB2A90D7020E2F
:101F9000DB500A0DF3CF42F10101436B446B456BFB
:101FA000D8EC39F009EC3AF09D908A888A8AFFD7FC
:0E1FB000E16AE552E16EE552E7CFD9FF12007B
:021FBE00D9CF79
:101FC000E6FFDACFE6FFE1CFD9FFE2CFDAFFFD0E81
:101FD000DB507E0BCD6EFD0EDBAC02D0CD8E01D082
:101FE000CD9ECF6ACE6A9E90DBAE02D09D8001D09E
:101FF0009D90CD80E552E5CFDAFFE7CFD9FF120003
:1020000000000000000000000000000000000000D0
:1020100000000000000000000000000000000000C0
:1020200000000000000000000000000000000000B0
:1020300000000000000000000000000000000000A0
:102040000000000000000000000000000000000090
:102050000000000000000000000000000000000080
:102060000000000000000000000000000000000070
:102070000000000000000000000000000000000060
:102080000000000000000000000000000000000050
:102090000000000000000000000000000000000040
:1020A0000000000000000000000000000000000030
:1020B0000000000000000000000000000000000020
:1020C0000000000000000000000000000000000010
:1020D0000000000000000000000000000000000000
:1020E00000000000000000000000000000000000F0
:1020F00000000000000000000000000000000000E0
:1021000000000000000000000000000000000000CF
:1021100000000000000000000000000000000000BF
:1021200000000000000000000000000000000000AF
:10213000000000000000000000000000000000009F
:10214000000000000000000000000000000000008F
:10215000000000000000000000000000000000007F
:10216000000000000000000000000000000000006F
:10217000000000000000000000000000000000005F
:10218000000000000000000000000000000000004F
:10219000000000000000000000000000000000003F
:1021A000000000000000000000000000000000002F
:1021B0000000000000000000F58B16EA000080011E
:1021C00001000607FFE60100000014000000000007
:1021D00000000000000000000000000000000000FF
:1021E00000000000000000000000000000000000EF
:1021F000000000000000000000000000000055AAE0
:10220000EB3C904D53444F53352E300002010100FA
:102210000110000000F801003F00FF000100000075
:1022200017000000000029326794C44E4F204E4131
:102230004D452020202046415431362020200000EA
:10224000000000000000000000000000000000008E
:10225000000000000000000000000000000000007E
:10226000000000000000000000000000000000006E
:10227000000000000000000000000000000000005E
:10228000000000000000000000000000000000004E
:10229000000000000000000000000000000000003E
:1022A000000000000000000000000000000000002E
:1022B000000000000000000000000000000000001E
:1022C000000000000000000000000000000000000E
:1022D00000000000000000000000000000000000FE
:1022E00000000000000000000000000000000000EE
:1022F00000000000000000000000000000000000DE
:1023000000000000000000000000000000000000CD
:1023100000000000000000000000000000000000BD
:1023200000000000000000000000000000000000AD
:10233000000000000000000000000000000000009D
:10234000000000000000000000000000000000008D
:10235000000000000000000000000000000000007D
:10236000000000000000000000000000000000006D
:10237000000000000000000000000000000000005D
:10238000000000000000000000000000000000004D
:10239000000000000000000000000000000000003D
:1023A000000000000000000000000000000000002D
:1023B000000000000000000000000000000000001D
:1023C000000000000000000000000000000000000D
:1023D00000000000000000000000000000000000FD
:1023E00000000000000000000000000000000000ED
:1023F000000000000000000000000000000055AADE
:10240000F80F00FF0F0000000000000000000000B7
:1024100000000000000000000000000000000000BC
:1024200000000000000000000000000000000000AC
:10243000000000000000000000000000000000009C
:10244000000000000000000000000000000000008C
:10245000000000000000000000000000000000007C
:10246000000000000000000000000000000000006C
:10247000000000000000000000000000000000005C
:10248000000000000000000000000000000000004C
:10249000000000000000000000000000000000003C
:1024A000000000000000000000000000000000002C
:1024B000000000000000000000000000000000001C
:1024C000000000000000000000000000000000000C
:1024D00000000000000000000000000000000000FC
:1024E00000000000000000000000000000000000EC
:1024F00000000000000000000000000000000000DC
:1025000000000000000000000000000000000000CB
:1025100000000000000000000000000000000000BB
:1025200000000000000000000000000000000000AB
:10253000000000000000000000000000000000009B
:10254000000000000000000000000000000000008B
:10255000000000000000000000000000000000007B
:10256000000000000000000000000000000000006B
:10257000000000000000000000000000000000005B
:10258000000000000000000000000000000000004B
:10259000000000000000000000000000000000003B
:1025A000000000000000000000000000000000002B
:1025B000000000000000000000000000000000001B
:1025C000000000000000000000000000000000000B
:1025D00000000000000000000000000000000000FB
:1025E00000000000000000000000000000000000EB
:1025F00000000000000000000000000000000000DB
:10260000506963204472697665202008000000004C
:102610000011001100000000001100000000000087
:1026200046494C4520202020545854200006287844
:10263000DE38DE3800000477DE38020004000000D7
:10264000000000000000000000000000000000008A
:10265000000000000000000000000000000000007A
:10266000000000000000000000000000000000006A
:10267000000000000000000000000000000000005A
:10268000000000000000000000000000000000004A
:10269000000000000000000000000000000000003A
:1026A000000000000000000000000000000000002A
:1026B000000000000000000000000000000000001A
:1026C000000000000000000000000000000000000A
:1026D00000000000000000000000000000000000FA
:1026E00000000000000000000000000000000000EA
:1026F00000000000000000000000000000000000DA
:1027000000000000000000000000000000000000C9
:1027100000000000000000000000000000000000B9
:1027200000000000000000000000000000000000A9
:102730000000000000000000000000000000000099
:102740000000000000000000000000000000000089
:102750000000000000000000000000000000000079
:102760000000000000000000000000000000000069
:102770000000000000000000000000000000000059
:102780000000000000000000000000000000000049
:102790000000000000000000000000000000000039
:1027A0000000000000000000000000000000000029
:1027B0000000000000000000000000000000000019
:1027C0000000000000000000000000000000000009
:1027D00000000000000000000000000000000000F9
:1027E00000000000000000000000000000000000E9
:1027F00000000000000000000000000000000000D9
:10280000446174610000000000000000000000004E
:1028100000000000000000000000000000000000B8
:1028200000000000000000000000000000000000A8
:102830000000000000000000000000000000000098
:102840000000000000000000000000000000000088
:10500000D9CFE6FFE1CFD9FFE6526A6A686A160E89
:105010006F6E9F0E6B6E7B0E696E6D8C6E6A010EED
:10502000E66EE66AE66A710EE66E0F0EE66E83ECD9
:105030003DF0146E050EE15E14506D9CDF6ADF508A
:10504000146E156A080E145C000E155810E2DF503D
:10505000040DF3CFE9FFF4CFEAFF000EE926040EBA
:10506000EA22EE6AEE6AEE6AEE6ADF2AE8D7160EE8
:10507000706E68A602D06896FCD70101136B186B9E
:10508000196B1A6B6D98080E0B6F040E0C6F016B89
:10509000006BE552E552E7CFD9FF1200D9CFE6FF0A
:1050A000E1CFD9FFE6520101000507E16DBA05D055
:1050B000686A69806988020E006F6850040B05E019
:1050C0006950040B02E06894B6D86DA202D0A19A90
:1050D00082D06850010B12E06950010B0FE090DFA5
:1050E0000101040E006F0401200E026F040E036F15
:1050F000080E016F006B8C0E001368906850100B47
:1051000005E06950100B02E084D868986850400BA5
:1051100013E06950400B10E0010EE66EE66A000EE7
:10512000E66EE66A730EE66EE66AB1EC3CF0146E6B
:10513000060EE15E1450689C6850200B04E0695034
:10514000200B01E04DD86850020B13E06950020BB0
:1051500010E0010EE66EE66A000EE66EE66AE668AC
:105160007F0EE66EB1EC3CF0146E060EE15E14505C
:105170006A6A040E0101E76E0019E8AE02D0E73456
:1051800002D0E750005D02E2A19A25D069A622D0A4
:10519000DF6A040EDF5C1EE268A61BD06CCF20F134
:1051A0006896780E0101201502E15AD810D0000E41
:1051B000E66EE66A200EE66E010EE66E720EE66E92
:1051C000E66AB1EC3CF0146E060EE15E1450DF2A84
:1051D000E0D700D0A19AE552E552E7CFD9FF1200FF
:1051E00070A015D003C1E9FF04C1EAFFEF508008A9
:1051F0000DE10BC1E9FF0CC1EAFFEF50840806E1A5
:1052000003C1E9FF04C1EAFF8C0EEF6E7090689A4B
:105210001200698468986D82000EE66EE66AE66E9A
:10522000E66A750EE66EE66AB1EC3CF0146E060EA8
:10523000E15E14501200000EE66EE66AE66EE66A63
:10524000740EE66EE66AB1EC3CF0146E060EE15E9A
:1052500014506D92699468A402D06894FCD712002F
:10526000D9CFE6FFE1CFD9FFE652FD0E01012015AF
:105270005AE17E0E2015E8407F0B040DF3CF03F1B9
:10528000F4CF04F1000E0327040E042303C105F13B
:1052900004C106F1057503C1E9FF04C1EAFFEF503F
:1052A0003C0BE842E8420D083CE103C1E9FF04C1C0
:1052B000EAFF020EE926000EEA22EECF14F0EFCF4D
:1052C00015F0280E141802E1040E151828E103C188
:1052D000E9FF04C1EAFF020EE926000EEA22200ED1
:1052E000EE6E040EED6EDF6ADF50146E156A080E66
:1052F000145C000E155813E2DF50EA6A280FE96EBD
:10530000040EEA22EF50E66EDF50EA6A200FE96EE3
:10531000040EEA22E552E750EF6EDF2AE5D70DD8FA
:1053200001D02ED805D0FD0E2015040801E14ED87D
:10533000E552E552E7CFD9FF12000BC1E9FF0CC1DE
:10534000EAFFEF50800B05E00BC1E9FF0CC1EAFF5B
:10535000EF6A01010F6B106B146B156B136BB6D8F2
:10536000000EE66EE66AE66EE66A030EE66EE66A32
:10537000B1EC3CF0146E060EE15E145011EF2CF00F
:10538000020E0101105D02E1ACDB1FD06CD80101FF
:1053900021511AE105C1E9FF06C1EAFFEE52080EEC
:1053A000EF6E05C1E9FF06C1EAFF020EE926000E15
:1053B000EA22200EEE6E040EED6E05C1E9FF06C175
:1053C000EAFF8C0EEF6E01D0216B1200D9CFE6FF01
:1053D000E1CFD9FFE6520BC1E9FF0CC1EAFFEF5064
:1053E000400B01E0010EDF6E01010B75080E005D40
:1053F0000AE122C46EFF6E50000803E2100E006F37
:1054000002D0040E006F100528E10BC1E9FF0CC1AA
:10541000EAFF020EE926000EEA22280EEE6E040EC6
:10542000ED6ED4DA020E01010F5D07E10BC1E9FF59
:105430000CC1EAFF840EEF6E0FD0DF5007E10BC105
:10544000E9FF0CC1EAFFC80EEF6E06D00BC1E9FF01
:105450000CC1EAFF880EEF6E01D005D8E552E55287
:10546000E7CFD9FF1200D9CFE6FFE1CFD9FF020E77
:10547000E1260101106B0BC1E9FF0CC1EAFFEF6AE5
:10548000040E0B19146E0CC115F014C0DEFF15C00C
:10549000DDFFDECFE9FFDDCFEAFFEF6A18AF0CD00A
:1054A0001B511C1107E005D01CC1FAFF01011B5163
:1054B000F96EFADF0101189F020EE15C02E2E16A77
:1054C000E552E16EE552E7CFD9FF12000401205109
:1054D000600BE842E842E842E842E842000901E0A5
:1054E00058D021510C0A54E00B0A43E00C0A35E075
:1054F000010A26E00B0A22E0020A20E0030A1CE06F
:10550000080A10E0010A0CE00F0A08E0030A01E0B3
:105510003FD00101138F080E006F3BD0C7D839D0A0
:105520007EDB37D00101010E116F010E126F138166
:10553000010E146F138F2DD013D92BD02BD829D057
:1055400024510101116F126B020E1127010E12235B
:105550001381010E146F138F1CD00101138F0401EE
:105560002451EA6A020FE96E010EEA2222C4EFFF1B
:1055700010D0000EE66EE66AE66EE66A020EE66E91
:10558000E66AB1EC3CF0146E060EE15E145001D0F8
:1055900000D01200D9CFE6FFE1CFD9FF040EE126FB
:1055A0000401220510E120511F0B00090CE101014B
:1055B000138F030E0401215D04E10101010E1F6F31
:1055C00002D001011F6B0401225166E120511F0B23
:1055D000020862E124510F0B00095EE00101138F04
:1055E000040124BF10D024510F0BE96EEA6AD89051
:1055F000E936EA36070EE926010EEA22EECFDEFF93
:10560000EDCFDDFF0FD024510F0BE96EEA6AD89081
:10561000E936EA360B0EE926010EEA22EECFDEFF6E
:10562000EDCFDDFF030E215D07E1DECFE9FFDDCF2A
:10563000EAFF840EEF6E30D024510F0B156A700F05
:10564000146E0F0E1522020E14C0DBFF030E15C0E0
:10565000DBFF020EDBCFE9FF030EDBCFEAFFEF90AB
:1056600024AF0DD0DECFE9FFDDCFEAFFEF6ADF74B4
:10567000DECFE9FFDDCFEAFF400EEF6E0DD0DECFCB
:10568000E9FFDDCFEAFF880EEF6EDF74DECFE9FFC2
:10569000DDCFEAFFC80EEF6E040EE15C02E2E16AC4
:1056A000E552E16EE552E7CFD9FF1200800E04010A
:1056B000205D55E10101C00E136F04012351030A5F
:1056C0002EE0010A0EE0030A03E00101136B47D04C
:1056D0000101A00E116F7B0E126F120E146F156B6D
:1056E0003ED02251F66EF76AD890F636F736440E61
:1056F000F6267C0EF7220900F5CF11F10A00F5CF4E
:1057000012F1020E0101F76A1125F66E1251F7220D
:105710000900F5CF14F10A00F5CF15F120D0030EE2
:10572000225D1AE22251F66EF76AD890F636F73605
:10573000460EF6267C0EF7220900F5CF11F10A007D
:10574000F5CF12F111C1F6FF12C1F7FF0800F550B5
:105750000101146F156B02D00101136B00D0120010
:10576000D9CFE6FFE1CFD9FF020EE1260401286B75
:10577000296B20511F0B020A12E0030A0DE0010AF7
:1057800001E03BD00101138F0401288101011F05B5
:1057900002E10401288331D00101138F2ED00101D1
:1057A000138F040124BF10D024510F0BE96EEA6A55
:1057B000D890E936EA36070EE926010EEA22EECF46
:1057C000DEFFEDCFDDFF0FD024510F0BE96EEA6A4B
:1057D000D890E936EA360B0EE926010EEA22EECF22
:1057E000DEFFEDCFDDFFDECFE9FFDDCFEAFFEF50DB
:1057F000040B02E0010E286F00D0010113AF07D0A7
:10580000280E116F040E126F1381020E146F020E18
:10581000E15C02E2E16AE552E16EE552E7CFD9FFD1
:1058200012006D98010113BF4AD018AF28D0020EA4
:10583000106F0BC1E9FF0CC1EAFFEE52EF6A0BC11A
:10584000E9FF0CC1EAFFC80EEF6E05C1E9FF06C112
:10585000EAFFEE52080EEF6E05C1E9FF06C1EAFF4E
:10586000020EE926000EEA22280EEE6E040EED6E00
:1058700005C1E9FF06C1EAFFC80EEF6E1FD005C1E2
:10588000E9FF06C1EAFFEE52080EEF6E05C1E9FF1F
:1058900006C1EAFF020EE926000EEA22200EEE6E95
:1058A000040EED6E05C1E9FF06C1EAFF8C0EEF6E36
:1058B0000BC1E9FF0CC1EAFF840EEF6E86D018BF62
:1058C00084D0040120AF59D0010114510401265D98
:1058D000010115510401275904E226C414F127C41B
:1058E00015F174D80101010E106F05C1E9FF06C161
:1058F000EAFFEE52080EEF6E05C1E9FF06C1EAFFAE
:10590000020EE926000EEA22200EEE6E040EED6E67
:1059100005C1E9FF06C1EAFF800EEF6E216B03C1EE
:10592000E9FF04C1EAFFEE52080EEF6E03C1E9FF82
:1059300004C1EAFF020EE926000EEA22200EEE6EF6
:10594000040EED6E03C1E9FF04C1EAFF840EEF6EA1
:10595000010E216F0BC1E9FF0CC1EAFF020EE9261F
:10596000000EEA22280EEE6E040EED6E0BC1E9FF6A
:105970000CC1EAFFC80EEF6E28D00101020E106FB5
:105980000BC1E9FF0CC1EAFFEE52EF6A0BC1E9FF60
:105990000CC1EAFFC80EEF6E05C1E9FF06C1EAFFC0
:1059A000EE52080EEF6E05C1E9FF06C1EAFF020ED6
:1059B000E926000EEA22280EEE6E040EED6E05C1F9
:1059C000E9FF06C1EAFFC80EEF6E1200D9CFE6FF6D
:1059D000E1CFD9FF020EE1260101080E145D000E91
:1059E00015590EE214C1DEFF15C1DDFF0F5103E1B1
:1059F000010E0F6F04D00F0502E1020E0F6F03D0EE
:105A0000080EDE6EDD6A0BC1E9FF0CC1EAFFEF9202
:105A10000BC1E9FF0CC1EAFFEF900BC1E9FF0CC11C
:105A2000EAFF010EDB50EF120BC1E9FF0CC1EAFFE8
:105A3000EE52DFCFEFFF000EDB50145F010EDB50A4
:105A4000155B280E1D6F040E1E6F13B121D0D9CF28
:105A5000E9FFDACFEAFFEE50ED1019E011C1F6FFD1
:105A600012C1F7FF112B000E12230800F550E66E4D
:105A70001DC1E9FF1EC1EAFF1D2B000E1E23E552CA
:105A8000E750EF6EDF06010E01E2DB06E0D71FD024
:105A9000D9CFE9FFDACFEAFFEE50ED1018E011C1DF
:105AA000E9FF12C1EAFF112B000E1223EF50E66E40
:105AB0001DC1E9FF1EC1EAFF1D2B000E1E23E5528A
:105AC000E750EF6EDF06010E01E2DB06E1D7020EC2
:105AD000E15C02E2E16AE552E16EE552E7CFD9FF0F
:105AE0001200D9CFE6FFE1CFD9FF020EE12603C1B4
:105AF000E9FF04C1EAFFEE52EFCFDFFFDFCF14F082
:105B000014500101195D000E1A5903E219C1DFFF9B
:105B100009D0DF50146E156A1450195D196F1550B5
:105B20001A591A6F010EDB6ADF50F36E010EDBCFDC
:105B3000F4FFF350F45C16E2010EDB50EA6A280F22
:105B4000E96E040EEA22EF50E66E16C1E9FF17C1B6
:105B5000EAFF162B000E1723E552E750EF6E010EF9
:105B6000DB2AE2D7000ED8801955000E1A5528E21C
:105B700005C1E9FF06C1EAFFEE52080EEF6E05C14E
:105B8000E9FF06C1EAFF020EE926000EEA22280E0E
:105B9000EE6E040EED6E03C1E9FF04C1EAFFEF50A3
:105BA000400B07E105C1E9FF06C1EAFFC80EEF6E31
:105BB00006D005C1E9FF06C1EAFF880EEF6E25D0C9
:105BC00005C1E9FF06C1EAFFEE52080EEF6E05C1FE
:105BD000E9FF06C1EAFF020EE926000EEA22200EC6
:105BE000EE6E040EED6E05C1E9FF06C1EAFF840EFC
:105BF000EF6E1B511C1107E005D01CC1FAFF01011B
:105C00001B51F96EFADF0101189F020EE15C02E2FE
:105C1000E16AE552E16EE552E7CFD9FF1200D9CF34
:105C2000E6FFE1CFD9FFE6520101138F010EE66EC8
:105C3000E66AE66A710EE66E0F0EE66E83EC3DF0E4
:105C4000146E050EE15E1450DF6ADF50146E156AA3
:105C5000080E145C000E155810E2DF50040DF3CF4F
:105C6000E9FFF4CFEAFF000EE926040EEA22EE6A0D
:105C7000EE6AEE6AEE6ADF2AE8D76D8C010EE66EF8
:105C8000E66AE66A020EE66E010EE66E83EC3DF011
:105C9000146E050EE15E14506D9C0101080E0B6F31
:105CA000040E0C6F000E036F040E046F03C105F1A8
:105CB00004C106F122C401F1015103E1100E006F8D
:105CC00012D0200E006F010EE66EE66A010EE66E3F
:105CD000010EE66E010EE66EE66AB1EC3CF0146E63
:105CE000060EE15E1450E552E552E7CFD9FF1200EF
:105CF000D9CFE6FFE1CFD9FF020EE126000EDE6E1E
:105D0000040EDD6EFD0EDB50E824166EFE0EDB5039
:105D1000040DF3501624040DF350146E156A020E90
:105D20000F0B05E0D89015321432E806FBE1D8904D
:105D300014361536D89014361536D9CFE9FFDACF98
:105D4000EAFF1450EE261550ED22DECFE9FFDDCF3D
:105D5000EAFFEF9EFD0EDB500FE1FE0EEA6ADB3438
:105D6000FE0BEA36E96E070EE926010EEA22DECFC7
:105D7000EEFFDDCFEDFF0ED0FE0EEA6ADB34FE0B48
:105D8000EA36E96E0B0EE926010EEA22DECFEEFFBF
:105D9000DDCFEDFFDECFE9FFDDCFEAFFEF9CDECF09
:105DA000E9FFDDCFEAFF040EE926000EEA22EF8CC0
:105DB000020EE15C02E2E16AE552E16EE552E7CFF4
:105DC000D9FF1200D9CFE6FFE1CFD9FF020EE126BD
:105DD000FE0EDB50156A700F146E0F0E152214C0E4
:105DE000DEFF15C0DDFFDECFE9FFDDCFEAFFFD0EF0
:105DF000DBCFEFFFDBA407D0E66AFE0EDBCFE6FFCA
:105E000077DFE552E552FD0EDBA208D0010EE66E0B
:105E1000FE0EDBCFE6FF6CDFE552E552020EE15CE1
:105E200002E2E16AE552E16EE552E7CFD9FF1200E6
:105E3000D9CFE6FFE1CFD9FF020EE126FE0EDB50FF
:105E400020E105C1E9FF06C1EAFFEE52080EEF6E40
:105E500005C1E9FF06C1EAFF020EE926000EEA22AB
:105E6000200EEE6E040EED6E05C1E9FF06C1EAFFDD
:105E70008C0EEF6E0BC1E9FF0CC1EAFF840EEF6ED2
:105E80003DD0FD0EDB50E824166EFE0EDB50040DF7
:105E9000F3501624040DF3CF14F0F4CF15F0000ED8
:105EA0001426040E152214C0DEFF15C0DDFF840E7B
:105EB000146EDECFE9FFDDCFEAFF1450EF12FD0EC6
:105EC000DB50E824166EFE0EDB50040DF350162452
:105ED000010F040DF3CF14F0F4CF15F0000E1426CB
:105EE000040E152214C0DEFF15C0DDFF840E146EF3
:105EF000DECFE9FFDDCFEAFF1450EF12020EE15CC6
:105F000002E2E16AE552E16EE552E7CFD9FF120005
:105F1000D9CFE6FFE1CFD9FF020EE126FD0EDB501F
:105F20000FE0FE0EEA6ADB34FE0BEA36E96E0B0E7A
:105F3000E926010EEA22EECFDEFFEDCFDDFF0ED027
:105F4000FE0EEA6ADB34FE0BEA36E96E070EE9263E
:105F5000010EEA22EECFDEFFEDCFDDFFDECFE9FF5F
:105F6000DDCFEAFF020EE926000EEA22FB0EDBCFB0
:105F7000EEFFFC0EDBCFEDFFDECFE9FFDDCFEAFF6A
:105F8000EE52FA0EDBCFEFFF400E146EDECFE9FFCC
:105F9000DDCFEAFF1450EF16880E146EDECFE9FF56
:105FA000DDCFEAFF1450EF12FD0EDB500CE0FE0EC9
:105FB000EA6ADB34FE0BEA36E96E0B0EE926010EC7
:105FC000EA22EF740BD0FE0EEA6ADB34FE0BEA36EF
:105FD000E96E070EE926010EEA22EF74DECF14F017
:105FE000DDCF15F014C0F3FF15C0F4FF020EE15C25
:105FF00003E200D0E16AE552E16EE552E7CFD9FF56
:106000001200D9CFE6FFE1CFD9FF6DA84ED0FE0E2A
:10601000EA6ADB34FE0BEA36E96E0B0EE926010E66
:10602000EA22EE50EFCFEAFFE96E400EEE16EE6A7E
:10603000EE6AEE6AFE0EEA6ADB34FE0BEA36E96EC1
:106040000B0EE926010EEA22EE50EFCFEAFFE96ED1
:10605000EE7CFE0EEA6ADB34FE0BEA36E96E0B0ECE
:10606000E926010EEA22EF74400E146EFE0EEA6A73
:10607000DB34FE0BEA36E96E0B0EE926010EEA224E
:10608000EE50EFCFEAFFE96E1450EF16FE0EEA6A0B
:10609000DB34FE0BEA36E96E0B0EE926010EEA222E
:1060A000EE50EFCFEAFFE96EEF7CE552E7CFD9FF84
:1060B000120005D06D6A696A0101006B00D0120000
:1060C0000101005113E16D6A696A160E6F6E9F0E31
:1060D0006B6E7B0E696ED08EA28AA08AF28E6DB630
:0E60E00002D06D86FCD70101010E006F120088
:0260EE000001AF
:1060F000976B986B400EE66E300EE66E040EE66E01
:10610000E66A010EE66E88EC2FF0146E050EE15E75
:106110001450F3CF95F0F4CF96F00001606BA46BB0
:10612000A56BA66BA76BA86BA96BAA6BAB6B9B6BE4
:106130009C6B6E6B010E6E5D2BE26E51EA6A9D0FD9
:10614000E96E000EEA22EF6A46EC3AF000091BE025
:1061500058EC3AF0F3CF14F0F4CF15F014501510BA
:1061600012E0010E6EC0E7FFE75204E0E846FE0BC6
:10617000E706FCE1146E156A14BE156814500001A0
:106180009B1315509C130AEC36F000016E2BD2D7EE
:106190001200040120511F0B010801E017D0245107
:1061A00001E014D02151FE0A04E0010A01E00ED002
:1061B0000DD00401286B0101280E116F040E126F1F
:1061C000010E146F156BC10E136F00D01200D9CFE2
:1061D000E6FFE1CFD9FFE65200016051030A01E179
:1061E000A9D0010A01E195D0030A01E18BD0010A8F
:1061F00001E0E9D09551961102E1000E08D095C05A
:10620000E9FF96C0EAFFEF50800B01E0010E0009A4
:1062100001E077D030C461F031C462F032C463F081
:1062200033C464F034C465F035C466F036C467F036
:1062300037C468F038C469F039C46AF03AC46BF006
:106240003BC46CF03CC46DF03DC46EF03EC46FF0D6
:10625000DF6A04013E51DF5C13E2DF50EA6A3F0F60
:10626000E96E040EEA22EF50E66EDF50EA6A700F24
:10627000E96E000EEA22E552E750EF6EDF2AE9D719
:1062800095C0E9FF96C0EAFFEE52EFCF80F01F0EF7
:106290000001805D36E1550E611908E1530E621967
:1062A00005E1420E631902E1430E64192AE16E51C1
:1062B0000F0827E36F51100824E3010E6F5D21E3FF
:1062C0006D5103E0800E6D5D1CE165C053F466C046
:1062D00054F467C055F468C056F40401550E4F6F6E
:1062E000530E506F420E516F530E526F800E0001CD
:1062F0006D5D03E1010E606F04D06D5102E1020E8D
:10630000606F61D06BDAFF0803E10001030E606F7C
:106310005AD064DAFF080DE104015B5107E15751DF
:10632000581159115A1102E0020E5B6F0001030E61
:10633000606F49D09751981102E1000E08D097C0C4
:10634000E9FF98C0EAFFEF50800B01E0010E000961
:1063500001E039D00D0EE66E4F0EE66E040EE66ECD
:10636000010EE66EE66E88EC2FF0146E050EE15E0F
:106370001450F3CF97F0F4CF98F000019551961197
:1063800002E1000E08D095C0E9FF96C0EAFFEF5089
:10639000800B01E0010E000913E11F0EE66E300EC6
:1063A000E66E040EE66EE66A010EE66E88EC2FF0ED
:1063B000146E050EE15E1450F3CF95F0F4CF96F015
:1063C0000001606B00D00001605100D0E552E55241
:1063D000E7CFD9FF1200D9CFE6FFE1CFD9FF090EF1
:1063E000E1260001FD51FE0A01E12ED1030A01E17F
:1063F00000D1D20A01E1F4D0340A01E1F1D01B0A44
:1064000001E1DAD01E0A01E1BED0040A01E1AAD0FE
:10641000190A01E180D0290A01E177D0020A6FE070
:106420000D0A2BE0370A06E0ED0A01E00DD170C03D
:10643000FDF01ED1240EE66EE66A500E146E7F0E3D
:10644000156E166A14C0E6FF15C0E6FF16C0E6FF1B
:10645000000EE66E060EE66E60EC3DF0176E070E5F
:10646000E15E17500401240E576F586B596B5A6B3D
:106470005B6B0001FD0EFD6FFBD004015B6B4EEC0E
:106480003AF0050E04C0DBFF060E05C0DBFF070E69
:1064900006C0DBFF080E07C0DBFF49EC3AF0F3CF84
:1064A00014F0F4CF15F0010E14C0DBFF020E15C07E
:1064B000DBFF030EDB6A040EDB6A080EDBCF00F69F
:1064C000070EDBCF01F6060EDBCF02F6050EDBCFA3
:1064D00003F6040EDBCF04F6030EDBCF05F6020E47
:1064E000DBCF06F6010EDBCF07F60401080E576F6F
:1064F000586B596B5A6B0001FD0EFD6FB9D0D5D9A1
:10650000000902E10001FD69B3D09BDA000902E154
:106510000001FD69ADD0DF6ADF50146E156A120EFE
:10652000145C000E155813E2DF50EA6A810FE96E21
:10653000000EEA22EF50E66EDF50EA6A000FE96EC5
:10654000060EEA22E552E750EF6EDF2AE5D7040196
:10655000120E576F586B596B5A6B5B6B0001FD0E37
:10656000FD6F86D00601020E006F016B026B036B9C
:1065700004015B6B040E576F586B596B5A6B00012B
:10658000FD0EFD6F75D046EC3AF0000907E00401FE
:106590005B6B576B586B596B5A6B0BD00001839137
:1065A0008383839583973A0E8D6F8E6B0401010E62
:1065B0005B6F0001FD695CD0000183510F0B060881
:1065C00006E104015B0503E10001FD6908D022DB5F
:1065D0000401576B586B596B5A6B0001FD6948D029
:1065E00004015B6B576B586B596B5A6B0001FD696B
:1065F0003FD000019751981102E1000E08D097C0DA
:10660000E9FF98C0EAFFEF50800B01E0010E00099E
:106610001AE157C4E6FF000EE66E060EE66E010EA6
:10662000E66EE66E88EC2FF0146E050EE15E1450F7
:10663000F3CF97F0F4CF98F00001FD690401576B98
:10664000586B596B5A6B14D0E5DA00018381839340
:1066500083858397200E8D6F8E6B0401010E5B6F17
:10666000576B586B596B5A6B0001FD0EFD6F00D0D4
:10667000090EE15C02E2E16AE552E16EE552E7CF24
:10668000D9FF1200D9CFE6FFE1CFD9FFE6520001D2
:10669000FD51FD0A73E0020A6EE0ED0A49E00C0AC2
:1066A00041E01E0A3FE0030A0DE0010EE66EE66ED1
:1066B00018EC2FF0E552E5520401010E5B6F00016A
:1066C000FD6987D0A7DA000183918383839583973F
:1066D0003A0E8D6F8E6BDF6ADF50146E156A120EE4
:1066E000145C000E155813E2DF50EA6A810FE96E60
:1066F000000EEA22EF50E66EDF50EA6A000FE96E04
:10670000060EEA22E552E750EF6EDF2AE5D70401D4
:10671000120E576F586B596B5A6B5B6B0001FD0E75
:10672000FD6F57D00401010E5B6F0001FD6951D070
:10673000240EE66EE66A500E146E7F0E156E166A13
:1067400014C0E6FF15C0E6FF16C0E6FF000EE66EB9
:10675000060EE66E60EC3DF0176E070EE15E175018
:106760000401240E576F586B596B5A6B5B6B000119
:10677000FD0EFD6F2ED070C0FDF02BD000019751A3
:10678000981102E1000E08D097C0E9FF98C0EAFF17
:10679000EF50800B01E0010E00091AE157C4E6FF3B
:1067A000000EE66E060EE66E010EE66EE66E88ECF4
:1067B0002FF0146E050EE15E1450F3CF97F0F4CF76
:1067C00098F00001FD690401576B586B596B5A6BC7
:1067D00000D0E552E552E7CFD9FF120046EC3AF07F
:1067E000000909E000016E51EA6A9D0FE96E000E92
:1067F000EA22EF0415E1010E6EC0E7FFE75204E064
:10680000E846FE0BE706FCE1E81C146E156A14BEB0
:106810001568145000019B1715509C1733DF41D0A9
:10682000010E6EC0E7FFE75204E0E846FE0BE70604
:10683000FCE1166E176A16BE176800019B5116140C
:10684000146E9C511714156E1450151029E158EC54
:106850003AF0F3CF14F0F4CF15F0145015101EE0F9
:10686000010E6EC0E7FFE75204E0E846FE0BE706C4
:10687000FCE1146E156A14BE1568145000019B13D8
:1068800015509C138391838383858397280E8D6F86
:106890008E6B0401010E5B6F9EDD01D0F3DE01D033
:1068A0009ADD0001FD5100D012000001FE51040AE2
:1068B00001E17CD0070A6DE0010A27E0030A18E035
:1068C000010A01E0BAD072C0A3F073C0A2F074C094
:1068D000A1F075C0A0F077C09FF078C09EF00401D1
:1068E0005B6B576B586B596B5A6B0001010EFE6F57
:1068F00000019E519F1103E10001FE6B9ED09E0797
:10690000000E9F5B0001020EFE6F0001975198116F
:1069100002E1000E08D097C0E9FF98C0EAFFEF50EF
:10692000800B01E0010E000901E087D0000EE66E49
:10693000060EE66EA0C0E6FFA1C0E6FFA2C0E6FF1D
:10694000A3C0E6FF64EC3AF0146E060EE15E14504C
:1069500001080AE00401010E5B6F576B586B596B1D
:106960005A6B0001606F69D00001A02B000EA123BB
:10697000A223A32304015B6B576B020E586F596B64
:106980005A6B0001000E936F060E946F0001030E08
:10699000FE6F04015751581159115A1104E10001B9
:1069A000010EFE6F4AD00001040EFE6F04015B5120
:1069B00043E1400E575D000E5859000E5959000E24
:1069C0005A593AE300019751981102E1000E08D09C
:1069D00097C0E9FF98C0EAFFEF50800B01E0010E7D
:1069E000000901E02AD0400EE66E93C0E6FF94C095
:1069F000E6FF010EE66EE66E88EC2FF0146E050ED3
:106A0000E15E1450F3CF97F0F4CF98F00001030E3D
:106A1000FE6F400E0001695F000E6A5B6B5B6C5B92
:106A2000400E0401575F000E585B595B5A5B400EE5
:106A300000019327000E942300D00001FE5100D0E6
:106A400012000001FF51020A01E1B5D0060A74E00C
:106A5000070A2BE0020A14E0010A01E0D7D072C055
:106A6000A3F073C0A2F074C0A1F075C0A0F077C00D
:106A70009FF078C09EF004015B6B0001010E606F17
:106A800000019E519F1103E10001FF6BBFD0000187
:106A9000030EFF6F0001000E936F060E946F04014A
:106AA000576B020E586F596B5A6BD880000E040159
:106AB0005755000E5855000E5955000E5A5528E2EC
:106AC00000019551961102E1000E08D095C0E9FF32
:106AD00096C0EAFFEF50800B01E0010E000901E0D3
:106AE00095D0400EE66E93C0E6FF94C0E6FFE66ADE
:106AF000010EE66E88EC2FF0146E050EE15E145068
:106B0000F3CF95F0F4CF96F00001040EFF6F14D090
:106B1000EEEC3BF000090CE0000183918383839548
:106B20008397270E8D6F8E6B0401010E5B6F03D070
:106B30000001020EFF6F6AD000019551961102E12B
:106B4000000E08D095C0E9FF96C0EAFFEF50800B19
:106B500001E0010E000901E059D095C0E9FF96C09F
:106B6000EAFFEE52EFCF14F0156A166A176A145056
:106B7000695F15506A5B16506B5B17506C5B95C074
:106B8000E9FF96C0EAFFEE52EFCF14F0156A166ADD
:106B9000176A14500401575F1550585B1650595B23
:106BA00017505A5B400E00019327000E94230001FA
:106BB000030EFF6F2BD00001A051A111A211A31150
:106BC00002E1010E01D0000EE66E000EE66E060E2A
:106BD000E66EA0C0E6FFA1C0E6FFA2C0E6FFA3C02C
:106BE000E6FF9FEC3AF0146E070EE15E14500108C8
:106BF00001E00CD00001A02B000EA123A223A323AF
:106C00009E079F5B0001010EFF6F00D00001FF5146
:106C100000D0120000018191819381958197818933
:106C2000818B818D819F826B8391839383958397E1
:106C3000839B839D839F846B856B866B876B0A0E1A
:106C4000886F896B8A6B8B6B8C6B8D6B8E6B8F6B8C
:086C5000906B916B926B120036
:086C58000101476B1200D9CFC6
:106C6000E6FFE1CFD9FF040EE126000E146E260EDA
:106C7000156E166A010E14C0DBFF020E15C0DBFF95
:106C8000030E16C0DBFFDF6A100EDF5C5DE20B0E49
:106C9000E66EE66AE66AFC0EDBCFE6FFFD0EDBCFB2
:106CA000E6FFFE0EDBCFE6FFDFCF17F0186A196AAA
:106CB000050ED890173618361936E806FAE1D9507D
:106CC000010FE96EDACFEAFFEE501724F36EEE50B3
:106CD0001820F46EEE501920F86EF4CFF7FFF3CFC2
:106CE000F6FFF6CF14F0F7CF15F0F8CF16F014C07A
:106CF000E6FF15C0E6FF16C0E6FFFCEC3CF01A6E9E
:106D0000090EE15E1A5000091DE1200EE66EE66AEA
:106D1000DF02F350156A000F146E260E1522166A54
:106D200014C0E6FF15C0E6FF16C0E6FF260EE66EAD
:106D3000010EE66E60EC3DF0176E070EE15E175037
:106D4000DF5004D0DF2AA0D7FF0E00D0146E040E4F
:106D5000E15C02E2E16AE552E16E1450E552E7CFF0
:106D6000D9FF1200D9CFE6FFE1CFD9FF020EE1260D
:106D7000000EDE6E060EDD6E000EE66E060EE66E90
:106D8000030EE66EE66AE66AE66A64EC3AF0146EB2
:106D9000060EE15E1450200EE66EE66A260EE66EE2
:106DA000010EE66EDECF16F0DDCF17F0FE0EDB50E3
:106DB000200D1650F324146E1750F420156E14C0D5
:106DC000E6FF15C0E6FF35EC3DF0186E060EE15EFD
:106DD0001850010EE66E000EE66E060EE66E030E0D
:106DE000E66EE66AE66AE66A9FEC3AF0146E070E13
:106DF000E15E1450020EE15C02E2E16AE552E16EEE
:106E0000E552E7CFD9FF1200D9CFE6FFE1CFD9FF96
:106E1000050EE126000E146E260E156E166A020E81
:106E200014C0DBFF030E15C0DBFF040E16C0DBFF32
:106E3000DF6A100EDF5C2FE2DFCF14F0156A166AEE
:106E4000050ED890143615361636E806FAE1D950F4
:106E5000020FE96EDACFEAFFEE501424F36EEE5023
:106E60001520F46EEE501620F86EF4CFF7FFF3CF36
:106E7000F6FF0800010EF5CFDBFFDB5008E0010E46
:106E8000DB50050804E0010EDB50E50802E1DF50AD
:106E900004D0DF2ACED7FF0E00D0146E050EE15CC1
:106EA00002E2E16AE552E16E1450E552E7CFD9FF04
:106EB0001200D9CFE6FFE1CFD9FF050EE126010E82
:106EC000E76E030EDBCF14F0040EDBCF15F0E750B6
:106ED0001416156A020E14C0DBFFFD0EDBCF14F092
:106EE000FE0EDBCF15F0030E1502F3CF15F01402E2
:106EF000F3CF14F0F4501526D89015321432FF0E4B
:106F00001416010E1516030E14C0DBFF040E15C077
:106F1000DBFF020EDB5038E0010EE76E030EDBCF25
:106F2000F6FF040EDBCFF7FFE750F626000EF72240
:106F3000000EF626240EF7220800F550176E186A88
:106F4000040ED89017361836E804FBE1F00E171639
:106F50000F0E1816030EDBCFF6FF040EDBCFF7FF84
:106F6000000EF626240EF7220800F5380F0B166ED9
:106F70000F0E161400011710146E18C015F014C06F
:106F8000DEFF15C0DDFF32D0010EE76E030EDBCF52
:106F9000F6FF040EDBCFF7FFE750F626000EF722D0
:106FA000000EF626240EF7220800F5CF16F016C0C4
:106FB00017F0166A000E16160F0E1716030EDBCF0B
:106FC000F6FF040EDBCFF7FF000EF626240EF722A5
:106FD0000800F5CF18F0FF0E181400011610146EFB
:106FE00017C015F014C0DEFF15C0DDFFDECF14F0B2
:106FF000DDCF15F014C0F3FF15C0F4FF050EE15C02
:1070000003E200D0E16AE552E16EE552E7CFD9FF35
:107010001200D9CFE6FFE1CFD9FF040EE126000E22
:10702000E66E060EE66E020EE66EE66AE66AE66A50
:1070300064EC3AF0146E060EE15E1450010EE76E39
:10704000020EDBCF14F0030EDBCF15F0E750141661
:10705000156A010E14C0DBFFFD0EDBCF14F0FE0E2F
:10706000DBCF15F0030E1502F3CF15F01402F3CFAA
:1070700014F0F4501526D89015321432FF0E141661
:10708000010E1516020E14C0DBFF030E15C0DBFF48
:10709000020EDBCFE9FF030EDBCFEAFF000EE9268D
:1070A000060EEA22EFCFDFFF010EDB5019E00F0ED4
:1070B000E76EFB0EDBCF14F0FC0EDBCF15F0E750D4
:1070C0001416156A040ED89014361536E804FBE140
:1070D0000F0EDF14166E176A14501610DF6E0DD0E7
:1070E000FF0EE76EFB0EDBCF14F0FC0EDBCF15F0CE
:1070F000E7501416156A1450DF6E020EDBCFE9FF5D
:10710000030EDBCFEAFF000EE926060EEA22DFCFF0
:10711000EFFF010EE76E020EDBCFE9FF030EDBCFC0
:10712000EAFFE750E926000EEA22000EE926060EE5
:10713000EA22EFCFDFFF010EDB500FE0FB0EDBCFCB
:1071400014F0FC0EDBCF15F0040ED890153214327B
:10715000E804FBE11450DF6E14D0FB0EDBCF14F01B
:10716000FC0EDBCF15F015C014F0156A0F0E1416C7
:10717000000E1516F00EDF14166E176A1450161056
:10718000DF6E010EE76E020EDBCFE9FF030EDBCFF1
:10719000EAFFE750E926000EEA22000EE926060E75
:1071A000EA22DFCFEFFF010EE66E000EE66E060E5E
:1071B000E66E020EE66EE66AE66AE66A9FEC3AF072
:1071C000146E070EE15E1450040EE15C02E2E16A07
:1071D000E552E16EE552E7CFD9FF1200D9CFE6FFC5
:1071E000E1CFD9FF020EE126DE6EDD6ADECF14F0BC
:1071F000DDCF15F0160E145C000E15581CE2DECF24
:10720000E6FFDDCFE6FF55DEE552E552F3CF14F0A1
:10721000F4CF15F01450151009E1DECF14F0DDCFD6
:1072200015F014C0F3FF15C0F4FF08D0DF2A010EDB
:1072300001E3DB2ADBD7F368F46800D0020EE15CDF
:1072400002E2E16AE552E16EE552E7CFD9FF1200B2
:10725000D9CFE6FFE1CFD9FF020EE1260101475168
:1072600002E0FF0E99D0010E476FFC0EDBCFE6FF68
:10727000FD0EDBCFE6FFFE0EDBCFE6FFF0DCE552D6
:10728000E552E5520101466FFF0E465D5DE1A6DF66
:10729000F3CF40F1F4CF41F10101401D01E1411D67
:1072A00002E1FF0E79D0B0DD0101466FFF0E465DB1
:1072B00002E1FF0E71D00B0EE66EE66AFC0EDBCF2C
:1072C000E6FFFD0EDBCFE6FFFE0EDBCFE6FF260E70
:1072D000E66E010EE66E60EC3DF0146E070EE15EA8
:1072E00014500101200E316F326B3A6B3B6B336BE4
:1072F000780E346F720E356FB00E366F320E376FF8
:10730000386B396B3C6B3D6B3E6B3F6B426B436B39
:10731000446B456BDE6ADD6ADECF14F0DDCF15F01D
:10732000000E145C020E15580EE2DECFE9FFDDCF31
:10733000EAFF000EE926060EEA22EF6ADF2A010EB6
:1073400001E3DB2AE9D726D0B00E386F320E396F51
:10735000790E3C6F720E3D6FB00E3E6F320E3F6F76
:10736000000EE66E060EE66E020E156A4025146EDD
:1073700041511522166A176A14C0E6FF15C0E6FFD0
:1073800016C0E6FF17C0E6FF64EC3AF0186E060E72
:10739000E15E1850000E00D0146E020EE15C02E2B5
:1073A000E16AE552E16E1450E552E7CFD9FF1200D1
:1073B0000101475101E12CD0010EE66E000EE66E90
:1073C000060EE66E020E156A4025146E4151152216
:1073D000166A176A14C0E6FF15C0E6FF16C0E6FF7E
:1073E00017C0E6FF9FEC3AF0186E070EE15E1850EA
:1073F00046C1E6FFB7DCE552E6680F0EE66E40C117
:10740000E6FF41C1E6FF05DEE552E552E552E552F1
:1074100012000101476B1200D9CFE6FFE1CFD9FF7F
:107420000101475102E0FF0E2DD0FC0EDBCFE6FF3D
:10743000FD0EDBCFE6FFFE0EDBCFE6FF10DCE552F4
:10744000E552E5520101466FFF0E465D02E1FF0E77
:1074500019D0000EE66EE66A40C1E6FF41C1E6FFC4
:10746000D8DDE552E552E552E5520101E50E266F01
:10747000406B416B426B436B446B456B46C1E6FF0F
:0C74800071DCE552E552E7CFD9FF1200A5
:04748C00010E00D01D
:107490001200F36A020EF46E00D01200170E046E92
:1074A000056A066A076A00D01200010E00D01200B9
:1074B0000101486B480E146E010E156E14C0F3FFE7
:1074C00015C0F4FF00D01200D9CFE6FFE1CFD9FFFD
:1074D000E66A020EE66EFB0EDBCF04F0FC0EDBCF9D
:1074E00005F0FD0EDBCF06F0FE0EDBCF07F0096ADC
:1074F000020E0A6E0B6A0C6A0DEC3FF000C014F02D
:1075000001C015F0000E1426200E1522166A14C0B4
:10751000E6FF15C0E6FF16C0E6FFF90EDBCFE6FF7B
:10752000FA0EDBCFE6FF60EC3DF0176E070EE15E72
:107530001750010E00D0E552E7CFD9FF1200D9CF86
:10754000E6FFE1CFD9FF0D0EE126FB0EDBCF04F005
:10755000FC0EDBCF05F0FD0EDBCF06F0FE0EDBCF21
:1075600007F0096A020E0A6E0B6A0C6A0DEC3FF016
:1075700000C014F001C015F0000E1426200E1522D4
:1075800014C0DEFF15C0DDFF050EDB6A060EDB6AE8
:10759000050EDBCF14F0060EDBCF15F0000E145CE9
:1075A000020E155801E3F5D0020EDB6A030EDB6A0A
:1075B000040EDB6A030EDBCF14F0040EDBCF15F0F4
:1075C000400E145C000E155840E2050EDBCF15F09E
:1075D000060EDBCF16F0DE501524F66EDD501620B9
:1075E000F76E0800F5CF14F0050EDBCF17F0060E8E
:1075F000DBCF18F0F90EDB501724E96EFA0EDB50E2
:107600001820EA6EEF50145C15E0010EF36E020EC6
:10761000F3CFDBFF030EDBCF14F0040EDBCF15F04E
:10762000D950050FE96EDACFEAFF1450EE5E15501F
:10763000ED5A0BD0050EDB2A060E01E3DB2A030E02
:10764000DB2A040E01E3DB2AB5D7020EDB0401E0DE
:107650009FD0050EDBCF16F0060EDBCF17F0DE5005
:107660001624146EDD501720156EC00E1416FF0E72
:1076700015160B0E14C0DBFF0C0E15C0DBFF0B0E36
:10768000DBCFE6FF0C0EDBCFE6FF91D8E552E552EB
:10769000050EDBCF14F0060EDBCF15F0C00E14166E
:1076A000FF0E1516050E14C0DBFF060E15C0DBFF1E
:1076B000400EE66EE66A050EDBCF16F0060EDBCF57
:1076C00017F0F90EDB501624146EFA0EDB5017205B
:1076D000156E14C0E6FF15C0E6FFAC0EE66E000E98
:1076E000E66E35EC3DF0186E060EE15E1850020EA7
:1076F000F36E090EF3CFDBFF0A0EDB6AD950070FDA
:10770000E96EDACFEAFFAC0EEE6E000EED6E090EFA
:10771000DBCFF3FFDB06F35000083AE2030EDB6A2F
:10772000040EDB6A030EDBCF14F0040EDBCF15F082
:10773000200E145C000E155817E2070EDBCFE9FF90
:10774000DB2A080EDBCFEAFF01E3DB2AEF50F56E00
:107750000D00050EDB2A060E01E3DB2A030EDB2AF1
:10776000040E01E3DB2ADED70A0EDB2A0A00840EB0
:10777000A66E550EA76EAA0EA76EA6820000A6944E
:10778000F62A000EF722000EF82200000000BFD7F4
:10779000FFD6010E00D0146E0D0EE15C02E2E16A2C
:1077A000E552E16E1450E552E7CFD9FF1200D9CF70
:1077B000E6FFE1CFD9FFFD0EDBCFF6FFFE0EDBCFFC
:1077C000F7FFF86A940EA66E550EA76EAA0EA76E66
:1077D000A682A694E552E7CFD9FF1200000E00D092
:0277E000120095
:0E77E200DACFE4FFE2CFDAFFE9CFE4FFEACF2F
:1077F000E4FFF6CFE4FFF7CFE4FFF5CFE4FFF3CFEC
:10780000E4FFF4CFE4FFFACFE4FF00EE00F0140E43
:10781000E80403E3EECFE4FFFBD700EE14F0080E1C
:10782000E80403E3EECFE4FFFBD7E6524EEC28F08A
:10783000E55200EE1BF0080EE80403E3E5CFEDFF90
:10784000FBD700EE13F0140EE80403E3E5CFEDFFE1
:10785000FBD7E5CFFAFFE5CFF4FFE5CFF3FFE5CFA8
:10786000F5FFE5CFF7FFE5CFF6FFE5CFEAFFE5CF80
:10787000E9FFE5CFDAFF1100D8CFE4FFE0CFE4FF66
:10788000E46EDACFE4FFE2CFDAFFE6529EA023D027
:107890009E900001FA51CF260001F62B190EF65DDD
:1078A0001AE1F66B0001F72B780EF75D0DE1F76B2F
:1078B0000001F82B3C0EF85D07E1F86B0001F92B95
:1078C000180EF95D01E1F96B8A788A50100B02E01D
:1078D0008A9A01D08A8AE552E5CFDAFFE550E5CFF2
:1078E000E0FFE5CFD8FF1000A5EC0EF005D860EC66
:1078F00030F006D8FED712000F0EC11200EF28F0AC
:10790000200E0101E76E0019E8AE02D0E73402D084
:10791000E750005D03E36D50020B01E002D0E7EC9D
:1079200030F012001200120012001200C9EF30F005
:1079300012001E0EE66E010EE66EE2EC2EF0E5522F
:10794000E55277EF30F06D840101080E4D6F070EA0
:107950004E6F4D07000E4E5B4D514E11FAE16D9486
:107960001200D9CFE6FFE1CFD9FFFD0EDBCF06F045
:10797000FE0EDBCF07F0720E061801E1075033E070
:10798000E868061802E17F0E07182BE0740E06184F
:1079900001E1075024E0750E061801E107501DE0D3
:1079A000730E061801E1075016E0030E061801E1F8
:1079B00007500FE0020E061801E1075008E0010E23
:1079C000061801E1075001E010D0B3DF0FD0B0DF9F
:1079D0000DD0ACDF0BD0A8DF09D0A4DF07D0A3DF28
:1079E00005D0A3DF03D0000001D000D0010E00D0ED
:0879F000E552E7CFD9FF1200B8
:0879F800F70EE35006E1F80E62
:107A0000E35003E1F90EE3502FE0F70EE30605E241
:107A1000F80EE30602E2F90EE306FA0EE3CFF6FFF4
:107A2000FB0EE3CFF7FFFC0EE3CFF8FF0800FD0EDF
:107A3000E3CFF6FFFE0EE3CFF7FFFF0EE3CFF8FF35
:107A4000FA0EE32A05E1FB0EE32A02E1FC0EE32A2B
:107A5000FD0EE32A05E1FE0EE32A02E1FF0EE32A12
:107A6000F5500800F55CC8E01200D9CFE6FFDACF88
:107A7000E6FFFA0EE3CFD9FFFB0EE3CFDAFFFC0EF1
:107A8000E3CFE9FFFD0EE3CFEAFFE9CFF3FFEACF53
:107A9000F4FFF80EE35003E1F90EE35008E0F80EAE
:107AA000E30602E2F90EE306DECFEEFFF2D7FF0EA9
:107AB000E3CFDAFFE552FF0EE3CFD9FFE552120024
:107AC000FB0EE3CFF6FFFC0EE3CFF7FFFD0EE3CF97
:107AD000F8FFFE0EE3CFE9FFFF0EE3CFEAFFE9CFA9
:107AE000F3FFEACFF4FFF90EE35003E1FA0EE3509F
:107AF00009E0F90EE30602E2FA0EE3060900F5CF0B
:107B0000EEFFF1D71200FE0EE3CFE9FFFF0EE3CF49
:107B1000EAFFE9CFF3FFEACFF4FFFB0EE35003E106
:107B2000FC0EE35009E0FB0EE30602E2FC0EE30666
:107B3000FD0EE350EE6EF1D71200FE0EE3CFE9FF2B
:107B4000FF0EE3CFEAFFF36AF46AEE5203E0F34A72
:107B5000F42AFBD71200FF0EE3CFF8FFE552FF0E29
:107B6000E3CFF7FFE552FF0EE3CFF6FFE552E66AFB
:107B7000E66AE66A0900F55209E0FD0EE32A05E12E
:107B8000FE0EE32A02E1FF0EE32AF4D7FD0EE3CF57
:107B900005F0FE0EE3CF06F0FF0EE3CF07F0120074
:107BA0001201100100000008D804090001000102C0
:107BB000000109022000010100C032090400000296
:107BC0000806500007058102400000070501024039
:107BD00000000403090434034D00690063007200CF
:107BE0006F006300680069007000200054006500A9
:107BF000630068006E006F006C006F006700790022
:107C0000200049006E0063002E003A034D00690019
:107C1000630072006F00630068006900700020005C
:107C20004D006100730073002000530074006F006A
:107C30007200610067006500200044007200690066
:0C7C400076006500B27BD27BD67B0A7C0C
:047C4C00D9CFE6FFA7
:107C5000DACFE6FFE1CFD9FFE2CFDAFFE652E65214
:107C6000E652E652D950F90F146EFF0EDA20156E67
:107C7000020E14C0DBFF030E15C0DBFF020EDBCFCC
:107C8000E6FF030EDBCFE6FFF90EDBCFE6FFFA0ED1
:107C9000DBCFE6FFFB0EDBCFE6FFD950FC0FE66E35
:107CA000FF0EDA20E66E38EC08F0146E070EE15C89
:107CB00002E2E16AE552E16E1450F3CFDEFFF4CF49
:107CC000DDFFFC0EDBCFE9FFFD0EDBCFEAFFEF6A45
:107CD000DECF14F0DDCF15F014C0F3FF15C0F4FFB4
:107CE000040EE15C02E2E16AE552E16EE552E5CFA5
:087CF000DAFFE7CFD9FF120013
:087CF8002A0EF66E100EF76E65
:107D0000000EF86E00010900F550F16F0900F55002
:107D1000F26F03E1F16701D03DD00900F550EC6F3F
:107D20000900F550ED6F0900F550EE6F09000900EC
:107D3000F550E96E0900F550EA6E090009000900E6
:107D4000F550EF6F0900F550F06F09000900F6CF0C
:107D5000F3F0F7CFF4F0F8CFF5F0ECC0F6FFEDC09C
:107D6000F7FFEEC0F8FF0001EF5302E1F05307E028
:107D70000900F550EE6EEF07F8E2F007F9D7F3C00F
:107D8000F6FFF4C0F7FFF5C0F8FF0001F107000EA1
:067D9000F25BBFD71200F8
:0A7D9600D9CFE6FFDACFE6FFE1CF18
:107DA000D9FFE2CFDAFFFB0EDBCF14F0FC0EDBCF06
:107DB00015F00001800E15141AE1FB0EDBCFE9FF70
:107DC000FC0EDBCFEAFFEECFF3FFEDCFF4FFEE2AA0
:107DD000000EEF22F3CFE9FFF4CFEAFFFD0EDBCF79
:107DE000EFFFEF50156AF36E15C0F4FF10D0FB0ED5
:107DF000DB50FE0806E1FD0EDBCFE6FFD8EC3FF0DE
:107E000005D0FD0EDBCFE6FFFAEC3FF0E552E55280
:0A7E1000E5CFDAFFE7CFD9FF12003B
:067E1A0004500902F3CF41
:107E200000F0F4CF01F00A02F3500126000EF42016
:107E3000026E04500B02F3500226000EF420036E73
:107E400004500C02F350032605500902F35001269A
:107E5000F4500222000E032205500A02F3500226BB
:107E6000F450032205500B02F3500326065009027A
:107E7000F3500226F450032206500A02F350032660
:0A7E800007500902F3500326120018
:067E8A0007C013F006C062
:107E900012F006500B02F4CF05F0F3CF04F00750B8
:107EA0000C02F4CF07F0F3CF06F00B02F3500526D7
:107EB000F4500622E86A072212500C02F3500526FD
:107EC000F4500622E86A07220CAE6BEF3FF0125026
:107ED000065E1350075A13AE000C0B50065E0C5092
:047EE000075A000C31
:0C7EE400036A026A016A006A200EE76E61
:107EF000D890043605360636073600360136023687
:107F000003360950005C0A5001580B5002580C50BF
:107F1000035809E30950005E0A50015A0B50025AF7
:0C7F20000C50035A042AE72EE4D712008C
:047F2C00F36AF46A96
:107F3000FF0EE124E96EFF0EE220EA6EED6607D047
:107F40002F0EEF6404D03A0EEF6001D0F32A120036
:107F500000800402200000004D6963726F63687046
:107F60004D6173732053746F726167652020202008
:047F7000303030314C
:0C7F7400000EF36E00EE00F0040E01D8C9
:107F80001200EA6002D0EE6AFCD7F350E9601200FA
:047F9000EE6AFCD7C2
:0C7F940013EE00F023EE00F0F86A0F9CE2
:107FA0007CEC3EF0FBEC3FF074EC3CF0FBD71200B5
:107FB000FF0EE350ACBA04D0AF6AAB8EAC8A949C8F
:0C7FC000ACA2FED7AD6EF36EF46A1200A6
:047FCC0030313233EB
:0D7FD0003435363738396162636465660008
:037FDD00524543C7
:097FE0004F524445524353560030
:077FE9002533642C253464EC
:037FF0000D0A0077
:027FF400120079
:027FF600120077
:037FF800FF000087
:027FFB00000084
:020000040030CA
:0100000024DB
:010001000EF0
:010002003FBE
:010003001EDE
:0100050001F9
:010006008178
:010008000FE8
:01000900C036
:01000A000FE6
:01000B00E014
:01000C000FE4
:01000D0040B2
:00000001FF
