:020000040000FA
:0600000007EF16F01200EC
:0600080004EF08F01200F5
:060018000CEF08F01200DD
:0610000007EF16F01200DC
:021006001200D6
:0610080095EF10F012004C
:02100E000000E0
:0110100000DF
:06101800E0EF10F01200F1
:02101E000100CF
:0C1020000E100000800100000300000022
:04102C00D9CFE6FF33
:10103000E1CFD9FFE6520F015F6B626A160E616E57
:101040009F0E5B6F7B0E606E648C5C6B030EE66EB6
:10105000E66AE66A540EE66E0F0EE66EDDEC15F0FB
:10106000106E050EE15E1050649CDF6ADF50106E5A
:10107000116A100E105C000E115810E2DF50040DC2
:10108000F3CFE9FFF4CFEAFF000EE926020EEA22D1
:10109000EE6AEE6AEE6AEE6ADF2AE8D70F01160EF4
:1010A000536F62A602D06296FCD701015B6B606B46
:1010B000616B626B6498080E4F6F020E506F416B4C
:1010C000406BE552E552E7CFD9FF1200D9CFE6FFDA
:1010D000E1CFD9FFE6520101400507E164BA05D02E
:1010E000626A60806088020E406F6250040B05E007
:1010F0006050040B02E06294B8D864A202D0A194BC
:1011000083D06250010B12E06050010B0FE08EDFC4
:101110000101040E406F0201400E026F020E036FC8
:10112000080E016F006B8C0E001362906250100B62
:1011300005E06050100B02E086D862986250400BC8
:1011400013E06050400B10E0010EE66EE66A000E00
:10115000E66EE66A730EE66EE66A84EC12F0106ED6
:10116000060EE15E1050629C6250200B04E060505D
:10117000200B01E04ED86250020B14E06050020BCD
:1011800011E0010EE66EE66A000EE66EE66AE668BB
:101190007F0EE66E84EC12F0106E060EE15E1050CB
:1011A0000F015F6B040E0101E76E4019E8AE02D03B
:1011B000E73402D0E750405D02E2A19425D060A65A
:1011C00022D0DF6A040EDF5C1EE262A61BD063CF72
:1011D00068F16296780E0101681502E15BD810D0C3
:1011E000000EE66EE66A680EE66E010EE66E720EA0
:1011F000E66EE66A84EC12F0106E060EE15E1050A8
:10120000DF2AE0D700D0A194E552E552E7CFD9FF1D
:1012100012000F0153A115D043C1E9FF44C1EAFFF9
:10122000EF5080080DE14FC1E9FF50C1EAFFEF50D8
:10123000840806E143C1E9FF44C1EAFF8C0EEF6E6A
:101240005391629A1200608462986482000EE66E86
:10125000E66AE66EE66A750EE66EE66A84EC12F001
:10126000106E060EE15E10501200000EE66EE66A89
:10127000E66EE66A740EE66EE66A84EC12F0106EB4
:10128000060EE15E10506492609462A402D06294F3
:10129000FCD71200D9CFE6FFE1CFD9FFE652FD0E11
:1012A000010168155AE17E0E6815E8407F0B040DB8
:1012B000F3CF43F1F4CF44F1000E4327020E442351
:1012C00043C145F144C146F1457543C1E9FF44C1FD
:1012D000EAFFEF503C0BE842E8420D083CE143C115
:1012E000E9FF44C1EAFF020EE926000EEA22EECF32
:1012F00010F0EFCF11F0480E101802E1020E111895
:1013000028E143C1E9FF44C1EAFF020EE926000ECD
:10131000EA22400EEE6E020EED6EDF6ADF50106EB6
:10132000116A080E105C000E115813E2DF50EA6AD1
:10133000480FE96E020EEA22EF50E66EDF50EA6ACD
:10134000400FE96E020EEA22E552E750EF6EDF2A07
:10135000E5D70DD801D02ED805D0FD0E68150408AC
:1013600001E14ED8E552E552E7CFD9FF12004FC157
:10137000E9FF50C1EAFFEF50800B05E04FC1E9FFE4
:1013800050C1EAFFEF6A0101576B586B5C6B5D6BF4
:101390005B6BB9D8000EE66EE66AE66EE66A030E8F
:1013A000E66EE66A84EC12F0106E060EE15E1050F6
:1013B0002EEF0CF0020E0101585D02E1AFDB1FD0F1
:1013C0006FD8010169511AE145C1E9FF46C1EAFF41
:1013D000EE52080EEF6E45C1E9FF46C1EAFF020E6C
:1013E000E926000EEA22400EEE6E020EED6E45C1B9
:1013F000E9FF46C1EAFF8C0EEF6E01D0696B120067
:10140000D9CFE6FFE1CFD9FFE6524FC1E9FF50C186
:10141000EAFFEF50400B01E0010EDF6E01014F7556
:10142000080E405D0DE142C25CFF0F015C510008F7
:1014300004E20101100E406F03D00101040E406F61
:10144000580528E14FC1E9FF50C1EAFF020EE92625
:10145000000EEA22480EEE6E020EED6ED4DA020E97
:101460000101575D07E14FC1E9FF50C1EAFF840E5A
:10147000EF6E0FD0DF5007E14FC1E9FF50C1EAFF27
:10148000C80EEF6E06D04FC1E9FF50C1EAFF880ECB
:10149000EF6E01D005D8E552E552E7CFD9FF120033
:1014A000D9CFE6FFE1CFD9FF020EE1260101586B4B
:1014B0004FC1E9FF50C1EAFFEF6A040E4F19106EE9
:1014C00050C111F010C0DEFF11C0DDFFDECFE9FF1B
:1014D000DDCFEAFFEF6A60AF0CD06351641107E023
:1014E00005D064C1FAFF01016351F96EFADF010111
:1014F000609F020EE15C02E2E16AE552E16EE552B4
:10150000E7CFD9FF120002014051600BE842E842E8
:10151000E842E842E842000901E058D041510C0A93
:1015200054E00B0A43E00C0A35E0010A26E00B0AFE
:1015300022E0020A20E0030A1CE0080A10E0010A87
:101540000CE00F0A08E0030A01E03FD001015B8FC5
:10155000080E406F3BD0C7D839D07EDB37D00101B1
:10156000410E596F010E5A6F5B81010E5C6F5B8FEC
:101570002DD013D92BD02BD829D044510101596F2C
:101580005A6B420E5927010E5A235B81010E5C6F84
:101590005B8F1CD001015B8F02014451EA6A420F4C
:1015A000E96E010EEA2242C2EFFF10D0000EE66E95
:1015B000E66AE66EE66A020EE66EE66A84EC12F011
:1015C000106E060EE15E105001D000D01200D9CF8F
:1015D000E6FFE1CFD9FF040EE1260201420510E14A
:1015E00040511F0B00090CE101015B8F030E02014A
:1015F000415D04E10101010E676F02D00101676BDB
:101600000201425166E140511F0B020862E1445160
:101610000F0B00095EE001015B8F020144BF10D097
:1016200044510F0BE96EEA6AD890E936EA36470E64
:10163000E926010EEA22EECFDEFFEDCFDDFF0FD06F
:1016400044510F0BE96EEA6AD890E936EA364F0E3C
:10165000E926010EEA22EECFDEFFEDCFDDFF030E1D
:10166000415D07E1DECFE9FFDDCFEAFF840EEF6EDB
:1016700030D044510F0B116A530F106E0F0E112210
:10168000020E10C0DBFF030E11C0DBFF020EDBCF2A
:10169000E9FF030EDBCFEAFFEF9044AF0DD0DECFC2
:1016A000E9FFDDCFEAFFEF6ADF74DECFE9FFDDCFD0
:1016B000EAFF400EEF6E0DD0DECFE9FFDDCFEAFF8F
:1016C000880EEF6EDF74DECFE9FFDDCFEAFFC80ED4
:1016D000EF6E040EE15C02E2E16AE552E16EE55272
:1016E000E7CFD9FF1200800E0201405D55E10101F4
:1016F000C00E5B6F02014351030A2EE0010A0EE0A7
:10170000030A03E001015B6B47D001010A0E596F28
:101710002A0E5A6F120E5C6F5D6B3ED04251F66E10
:10172000F76AD890F636F736CB0EF6262A0EF72251
:101730000900F5CF59F10A00F5CF5AF1020E010167
:10174000F76A5925F66E5A51F7220900F5CF5CF178
:101750000A00F5CF5DF120D0030E425D1AE242513E
:10176000F66EF76AD890F636F736CD0EF6262A0EC4
:10177000F7220900F5CF59F10A00F5CF5AF159C106
:10178000F6FF5AC1F7FF0800F55001015C6F5D6B71
:1017900002D001015B6B00D01200D9CFE6FFE1CF90
:1017A000D9FF020EE1260201486B496B40511F0B25
:1017B000020A12E0030A0DE0010A01E03BD0010138
:1017C0005B8F020148810101670502E10201488344
:1017D00031D001015B8F2ED001015B8F020144BF2C
:1017E00010D044510F0BE96EEA6AD890E936EA3618
:1017F000470EE926010EEA22EECFDEFFEDCFDDFF38
:101800000FD044510F0BE96EEA6AD890E936EA36F8
:101810004F0EE926010EEA22EECFDEFFEDCFDDFF0F
:10182000DECFE9FFDDCFEAFFEF50040B02E0010E4F
:10183000486F00D001015BAF07D0480E596F020E10
:101840005A6F5B81020E5C6F020EE15C02E2E16A9C
:10185000E552E16EE552E7CFD9FF1200649801012D
:101860005BBF4AD060AF28D0020E586F4FC1E9FF6E
:1018700050C1EAFFEE52EF6A4FC1E9FF50C1EAFFE3
:10188000C80EEF6E45C1E9FF46C1EAFFEE52080EF1
:10189000EF6E45C1E9FF46C1EAFF020EE926000EE0
:1018A000EA22480EEE6E020EED6E45C1E9FF46C11A
:1018B000EAFFC80EEF6E1FD045C1E9FF46C1EAFF3F
:1018C000EE52080EEF6E45C1E9FF46C1EAFF020E77
:1018D000E926000EEA22400EEE6E020EED6E45C1C4
:1018E000E9FF46C1EAFF8C0EEF6E4FC1E9FF50C120
:1018F000EAFF840EEF6E86D060BF84D0020140AF55
:1019000059D001015C510201465D01015D510201A6
:10191000475904E246C25CF147C25DF174D8010147
:10192000010E586F45C1E9FF46C1EAFFEE52080EAD
:10193000EF6E45C1E9FF46C1EAFF020EE926000E3F
:10194000EA22400EEE6E020EED6E45C1E9FF46C181
:10195000EAFF800EEF6E696B43C1E9FF44C1EAFF05
:10196000EE52080EEF6E43C1E9FF44C1EAFF020EDA
:10197000E926000EEA22400EEE6E020EED6E43C125
:10198000E9FF44C1EAFF840EEF6E010E696F4FC19B
:10199000E9FF50C1EAFF020EE926000EEA22480ED6
:1019A000EE6E020EED6E4FC1E9FF50C1EAFFC80EA8
:1019B000EF6E28D00101020E586F4FC1E9FF50C1F0
:1019C000EAFFEE52EF6A4FC1E9FF50C1EAFFC80ECD
:1019D000EF6E45C1E9FF46C1EAFFEE52080EEF6E19
:1019E00045C1E9FF46C1EAFF020EE926000EEA22E0
:1019F000480EEE6E020EED6E45C1E9FF46C1EAFFEC
:101A0000C80EEF6E1200D9CFE6FFE1CFD9FF020E6C
:101A1000E1260101080E5C5D000E5D590EE25CC11D
:101A2000DEFF5DC1DDFF575103E1010E576F04D0AA
:101A3000570502E1020E576F03D0080EDE6EDD6A15
:101A40004FC1E9FF50C1EAFFEF924FC1E9FF50C11A
:101A5000EAFFEF904FC1E9FF50C1EAFF010EDB50F2
:101A6000EF124FC1E9FF50C1EAFFEE52DFCFEFFFA7
:101A7000000EDB505C5F010EDB505D5B480E656F56
:101A8000020E666F5BB121D0D9CFE9FFDACFEAFF52
:101A9000EE50ED1019E059C1F6FF5AC1F7FF592B6E
:101AA000000E5A230800F550E66E65C1E9FF66C1D5
:101AB000EAFF652B000E6623E552E750EF6EDF0666
:101AC000010E01E2DB06E0D71FD0D9CFE9FFDACF64
:101AD000EAFFEE50ED1018E059C1E9FF5AC1EAFFE4
:101AE000592B000E5A23EF50E66E65C1E9FF66C11F
:101AF000EAFF652B000E6623E552E750EF6EDF0626
:101B0000010E01E2DB06E1D7020EE15C02E2E16ACE
:101B1000E552E16EE552E7CFD9FF1200D9CFE6FFDB
:101B2000E1CFD9FF020EE12643C1E9FF44C1EAFF3C
:101B3000EE52EFCFDFFFDFCF10F010500101615DFB
:101B4000000E625903E261C1DFFF09D0DF50106E61
:101B5000116A1050615D616F11506259626F010E20
:101B6000DB6ADF50F36E010EDBCFF4FFF350F45C61
:101B700016E2010EDB50EA6A480FE96E020EEA2215
:101B8000EF50E66E5EC1E9FF5FC1EAFF5E2B000E1B
:101B90005F23E552E750EF6E010EDB2AE2D7000E1D
:101BA000D8806155000E625528E245C1E9FF46C163
:101BB000EAFFEE52080EEF6E45C1E9FF46C1EAFFAB
:101BC000020EE926000EEA22480EEE6E020EED6EBF
:101BD00043C1E9FF44C1EAFFEF50400B07E145C1B3
:101BE000E9FF46C1EAFFC80EEF6E06D045C1E9FF26
:101BF00046C1EAFF880EEF6E25D045C1E9FF46C118
:101C0000EAFFEE52080EEF6E45C1E9FF46C1EAFF5A
:101C1000020EE926000EEA22400EEE6E020EED6E76
:101C200045C1E9FF46C1EAFF840EEF6E63516411BE
:101C300007E005D064C1FAFF01016351F96EFADFD4
:101C40000101609F020EE15C02E2E16AE552E16E91
:101C5000E552E7CFD9FF1200D9CFE6FFE1CFD9FF98
:101C6000E65201015B8F030EE66EE66AE66A540EE9
:101C7000E66E0F0EE66EDDEC15F0106E050EE15E01
:101C80001050DF6ADF50106E116A100E105C000EEB
:101C9000115810E2DF50040DF3CFE9FFF4CFEAFF53
:101CA000000EE926020EEA22EE6AEE6AEE6AEE6A9B
:101CB000DF2AE8D7648C010EE66EE66AE66A420E19
:101CC000E66E010EE66EDDEC15F0106E050EE15EBF
:101CD0001050649C0101080E4F6F020E506F000EF1
:101CE000436F020E446F43C145F144C146F142C205
:101CF00041F1415103E1100E406F12D0200E406FB0
:101D0000010EE66EE66A410EE66E010EE66E010E0B
:101D1000E66EE66A84EC12F0106E060EE15E10507C
:101D2000E552E552E7CFD9FF1200D9CFE6FFE1CF68
:101D3000D9FF020EE126000EDE6E020EDD6EFD0EF4
:101D4000DB50E824126EFE0EDB50040DF35012241B
:101D5000040DF350106E116A020E0F0B05E0D890BF
:101D600011321032E806FBE1D89010361136D890C7
:101D700010361136D9CFE9FFDACFEAFF1050EE2640
:101D80001150ED22DECFE9FFDDCFEAFFEF9EFD0E21
:101D9000DB500FE1FE0EEA6ADB34FE0BEA36E96E39
:101DA000470EE926010EEA22DECFEEFFDDCFEDFF82
:101DB0000ED0FE0EEA6ADB34FE0BEA36E96E4F0EF9
:101DC000E926010EEA22DECFEEFFDDCFEDFFDECF0A
:101DD000E9FFDDCFEAFFEF9CDECFE9FFDDCFEAFFD1
:101DE000040EE926000EEA22EF8C020EE15C02E20C
:101DF000E16AE552E16EE552E7CFD9FF1200D9CF93
:101E0000E6FFE1CFD9FF020EE126FE0EDB50116A9C
:101E1000530F106E0F0E112210C0DEFF11C0DDFF38
:101E2000DECFE9FFDDCFEAFFFD0EDBCFEFFFDBA466
:101E300007D0E66AFE0EDBCFE6FF77DFE552E5521C
:101E4000FD0EDBA208D0010EE66EFE0EDBCFE6FF34
:101E50006CDFE552E552020EE15C02E2E16AE55216
:101E6000E16EE552E7CFD9FF1200D9CFE6FFE1CF0F
:101E7000D9FF020EE126FE0EDB5020E145C1E9FF4D
:101E800046C1EAFFEE52080EEF6E45C1E9FF46C1BA
:101E9000EAFF020EE926000EEA22400EEE6E020E66
:101EA000ED6E45C1E9FF46C1EAFF8C0EEF6E4FC1F2
:101EB000E9FF50C1EAFF840EEF6E3DD0FD0EDB500E
:101EC000E824126EFE0EDB50040DF3501224040DB4
:101ED000F3CF10F0F4CF11F0000E1026020E1122F5
:101EE00010C0DEFF11C0DDFF840E106EDECFE9FFF3
:101EF000DDCFEAFF1050EF12FD0EDB50E824126E2A
:101F0000FE0EDB50040DF3501224010F040DF3CF2D
:101F100010F0F4CF11F0000E1026020E112210C0A6
:101F2000DEFF11C0DDFF840E106EDECFE9FFDDCFD6
:101F3000EAFF1050EF12020EE15C02E2E16AE552A4
:101F4000E16EE552E7CFD9FF1200D9CFE6FFE1CF2E
:101F5000D9FF020EE126FD0EDB500FE0FE0EEA6A0D
:101F6000DB34FE0BEA36E96E4F0EE926010EEA225B
:101F7000EECFDEFFEDCFDDFF0ED0FE0EEA6ADB34E2
:101F8000FE0BEA36E96E470EE926010EEA22EECF95
:101F9000DEFFEDCFDDFFDECFE9FFDDCFEAFF020E92
:101FA000E926000EEA22FB0EDBCFEEFFFC0EDBCFB4
:101FB000EDFFDECFE9FFDDCFEAFFEE52FA0EDBCF19
:101FC000EFFF400E106EDECFE9FFDDCFEAFF1050CD
:101FD000EF16880E106EDECFE9FFDDCFEAFF10505E
:101FE000EF12FD0EDB500CE0FE0EEA6ADB34FE0B56
:101FF000EA36E96E4F0EE926010EEA22EF740BD0A5
:10200000FE0EEA6ADB34FE0BEA36E96E470EE9267D
:10201000010EEA22EF74DECF10F0DDCF11F010C018
:10202000F3FF11C0F4FF020EE15C03E200D0E16AAD
:10203000E552E16EE552E7CFD9FF1200D9CFE6FFB6
:10204000E1CFD9FF64A84ED0FE0EEA6ADB34FE0B66
:10205000EA36E96E4F0EE926010EEA22EE50EFCF86
:10206000EAFFE96E400EEE16EE6AEE6AEE6AFE0ECA
:10207000EA6ADB34FE0BEA36E96E4F0EE926010E02
:10208000EA22EE50EFCFEAFFE96EEE7CFE0EEA6A3E
:10209000DB34FE0BEA36E96E4F0EE926010EEA222A
:1020A000EF74400E106EFE0EEA6ADB34FE0BEA3669
:1020B000E96E4F0EE926010EEA22EE50EFCFEAFF5D
:1020C000E96E1050EF16FE0EEA6ADB34FE0BEA36BC
:1020D000E96E4F0EE926010EEA22EE50EFCFEAFF3D
:1020E000E96EEF7CE552E7CFD9FF120005D0646AB4
:1020F000606A0101406B00D012000101405114E1FF
:10210000646A606A160E616E0F019F0E5B6F7B0E34
:10211000606ED08EA284A084F28E64B602D06486F3
:0A212000FCD70101010E406F120010
:06212A00DACFE4FFE2CF72
:10213000DAFFE9CFE4FFEACFE4FFF6CFE4FFF7CF21
:10214000E4FFF5CFE4FFF3CFE4FFF4CFE4FFFACFF1
:10215000E4FF00EE00F0100EE80403E3EECFE4FF2E
:10216000FBD700EE10F0080EE80403E3EECFE4FF27
:10217000FBD7E65266EC08F0E55200EE17F0080EC9
:10218000E80403E3E5CFEDFFFBD700EE0FF0100E00
:10219000E80403E3E5CFEDFFFBD7E5CFFAFFE5CF9A
:1021A000F4FFE5CFF3FFE5CFF5FFE5CFF7FFE5CF90
:1021B000F6FFE5CFEAFFE5CFE9FFE5CFDAFF110053
:1021C000D8CFE4FFE0CFE4FFE46EDACFE4FFE2CF64
:1021D000DAFFE9CFE4FFEACFE4FFE652D9CFE6FF2A
:1021E000E1CFD9FFE6529EAA18D0ABA205D0AB989A
:1021F000AE50DF6EAB8811D00001E051EA6A600F8B
:10220000E96E000EEA22AECFEFFFE02BE051EA6A62
:10221000600FE96E000EEA22EF6AE552E552E7CF61
:10222000D9FFE552E5CFEAFFE5CFE9FFE5CFDAFFD9
:10223000E550E5CFE0FFE5CFD8FF100005D87DECF5
:1022400010F0ACD8FED712000F0EC11202D816EF54
:1022500008F0D9CFE6FFE1CFD9FFE65220D8DF6AF8
:10226000DF50106E116A400E105C000E115809E22A
:10227000DF50EA6A600FE96E000EEA22EF6ADF2A99
:10228000EFD70001E06BE16BE36BE46BF28CFC0ECB
:102290008B169416E552E552E7CFD9FF1200D9CF3D
:1022A000E6FFE1CFD9FFE6527F96938A939E240EF4
:1022B000AC6E900EAB6E080EB86E710EAF6E020E65
:1022C000B06EAE50DF6E9F9A9D8AE552E552E7CF21
:1022D000D9FF1200D9CFE6FFE1CFD9FFFE0EDB50C8
:1022E000AD6EE552E7CFD9FF1200D9CFE6FFE1CFBF
:1022F000D9FF040EE126D880000E02015055C20E0F
:102300005155010E5255000E535501E23DD050C2B9
:10231000D8F251C2D9F252C2DAF253C2DBF2146AD5
:102320001B0E156EB70E166E176A14C004F015C09A
:1023300005F016C006F017C007F0D8C209F0D9C2E0
:102340000AF0DAC20BF0DBC20CF0B9EC15F004C0F5
:1023500010F005C011F006C012F007C013F010060F
:10236000000E115A125A135A10C0DFFF010E11C08D
:10237000DBFF020E12C0DBFF030E13C0DBFFDF50DA
:10238000AF6E010EDB50B06E040EE15C02E2E16A5A
:10239000E552E16EE552E7CFD9FF120058D8200E82
:1023A0000101E76E4019E8AE02D0E73402D0E750F1
:1023B000405D03E36450020B01E048D0010180510D
:1023C00015E1400EE66EA00EE66E000EE66E56ECCF
:1023D00013F0E552E552E5520001E16FE1510008CA
:1023E00005E20101010E806F0001E26B01018051E5
:1023F00015E0AC50020B12E00001E251EA6AA00FB6
:10240000E96E000EEA22EF50E66E64DFE55200014D
:10241000E22BE151E25D02E10101806B0001E85134
:1024200013E10001E05100080FE29D9AE0C0E6FFD1
:10243000600EE66E000EE66EB7EC13F0E552E55264
:10244000E5520001E06B9D8A5BEC14F01200010183
:102450008151821104E1100E816F270E826F810776
:10246000000E825B64A20AD08151821106E18B705A
:102470008BA002D08B8201D08B922ED001014051D3
:1024800003E18B908B9228D0400503E18B808B82F7
:1024900023D0020E405D03E18B808B921DD0040E91
:1024A000405D03E18B908B8217D0100E405D07E1F9
:1024B00001018151821102E18B708B920DD0200EAF
:1024C000405D0AE101018151821106E18B708BA010
:1024D00002D08B9201D08B821200120012001200E7
:1024E0001200CFEF12F0120022EF13F0648400010B
:1024F000080EE56F070EE66FE507000EE65BE55197
:10250000E611FAE164941200D9CFE6FFE1CFD9FFDA
:10251000FD0EDBCF06F0FE0EDBCF07F0720E0618C5
:1025200001E1075033E0E868061802E17F0E071862
:102530002BE0740E061801E1075024E0750E061812
:1025400001E107501DE0730E061801E1075016E087
:10255000030E061801E107500FE0020E061801E114
:10256000075008E0010E061801E1075001E010D005
:10257000BBDF0FD0B8DF0DD0B4DF0BD0B0DF09D098
:10258000ACDF07D0ABDF05D0ABDF03D0000001D05C
:0E25900000D0010E00D0E552E7CFD9FF1200B7
:02259E00020138
:1025A00040511F0B010801E04CD04051600BE84244
:1025B000E842E842E842E842010801E042D04451E2
:1025C00003E0440501E03DD04151220A35E0030A11
:1025D00028E0010A17E0210A0EE0010A01E031D0EB
:1025E0000101F80E596F000E5A6F080E5C6F5D6B9B
:1025F0005B815B8F26D00101F80E596F000E5A6F78
:102600005B8F1FD046C261F147C262F10101500EDB
:102610005E6F020E5F6FEA0E636F220E646F608F53
:1026200010D00101D80E596F020E5A6F070E5C6F61
:102630005D6BC10E5B6F05D042C2F3F001015B8F91
:1026400000D012000201D86B4B0ED96FDA6BDB6B36
:10265000DC6BDD6B080EDE6F0001E86BE76B1A0EBA
:10266000E66E020EE66EFFEC0EF0E552E5521E0E2F
:10267000E66E030EE66EFFEC0EF0E552E552400EFC
:10268000E66E580EE66E020EE66EE66A030EE66E23
:10269000A5EC0FF0106E050EE15E1050F3CFEFF0D9
:1026A000F4CFF0F00001F16BF26B1200D9CFE6FF2E
:1026B000E1CFD9FF0001E76BEF51F01102E1000E0D
:1026C00008D0EFC0E9FFF0C0EAFFEF50800B01E057
:1026D000010E000945E1FC0EDBCF10F0EFC0E9FF71
:1026E000F0C0EAFFEE52EF50D880105408E2EFC07D
:1026F000E9FFF0C0EAFFEE52FC0EEFCFDBFFE76B25
:10270000FC0EDB50E75D19E2E751EA6A580FE96E0B
:10271000020EEA22EF50E66EE751E76EFD0EDBCFC8
:10272000E9FFFE0EDBCFEAFFE750E926000EEA22C2
:10273000E552E750EF6EE72BE3D7400EE66E580EFA
:10274000E66E020EE66EE66A030EE66EA5EC0FF08C
:10275000106E050EE15E1050F3CFEFF0F4CFF0F005
:102760000001E75100D0E552E7CFD9FF1200D9CFE1
:10277000E6FFE1CFD9FFA0940001E8510CE1FD0E86
:10278000DBCFE9F0FE0EDBCFEAF0FC0EDBCFEDF0A5
:10279000010EEE6FE86FA084E552E7CFD9FF12007B
:1027A000D9CFE6FFE1CFD9FF030EE126A0940001C7
:1027B000E85102E0A0842FD0DF6AFD0EDBCF06F0E7
:1027C000FE0EDBCF07F0DE5206C0DEFF07C0DDFFE6
:1027D000DD52DF2ADF50106E116AFF0E101801E182
:1027E000115001E10BD0010EDBCFE9FFDB2A020E15
:1027F000DBCFEAFF01E3DB2AEF50EBE1FD0EDBCF9D
:10280000E9F0FE0EDBCFEAF0DFCFEDF00001010EC4
:10281000EE6FE86FA084030EE15C02E2E16AE5522C
:10282000E16EE552E7CFD9FF1200D9CFE6FFE1CF45
:10283000D9FF030EE126A0940001E85102E0A08434
:1028400030D0DF6AFD0EDBCF06F0FE0EDBCF07F0E7
:10285000DE5206C0DEFF07C0DDFFDD52DF2ADF509B
:10286000106E116AFF0E101801E1115001E10CD039
:10287000010EDBCFF6FFDB2A020EDBCFF7FF01E311
:10288000DB2A0800F550EAE1FD0EDBCFE9F0FE0E91
:10289000DBCFEAF0DFCFEDF00001EE6B010EE86F69
:1028A000A084030EE15C02E2E16AE552E16EE552CA
:1028B000E7CFD9FF1200D9CFE6FFE1CFD9FF020E53
:1028C000E126A0940001F151F21102E1000E08D0BE
:1028D000F1C0E9FFF2C0EAFFEF50800B01E0010E0A
:1028E000000902E0A08487D0030EE85D01E1E86BF7
:1028F000E85102E1A0847FD0020EE85D16E1E66AAD
:10290000000EE66EE66A010EE66E030EE66EA5ECBC
:102910000FF0106E050EE15E1050F3CFF1F0F4CF22
:10292000F2F00001030EE86F65D0E80563E1400EA8
:10293000106E116AED51105C000E115803E2400E4A
:10294000DF6E02D0EDC0DFFFDF50ED5DED6F980E62
:10295000EB6F020EEC6F010EDFCFDBFFEE5117E1E4
:10296000010EDB5013E0E9C0F6FFEAC0F7FF0800F4
:10297000F550EBC0E9FFECC0EAFFEF6EEB2B000E69
:10298000EC23E92BEA23010EDB06EAD715D0010E72
:10299000DB5012E0E9C0E9FFEAC0EAFFEF50EBC00C
:1029A000E9FFECC0EAFFEF6EEB2B000EEC23E92B06
:1029B000EA23010EDB06EBD7ED5108E1400EDF5CA8
:1029C00003E1020EE86F02D0030EE86FDFCFE6FFEF
:1029D000980EE66E020EE66E010EE66E030EE66ED1
:1029E000A5EC0FF0106E050EE15E1050F3CFF1F084
:1029F000F4CFF2F0A084020EE15C02E2E16AE5525B
:0A2A0000E16EE552E7CFD9FF1200A6
:062A0A00120100020200AF
:102A10000008D8040A000001010200010902430075
:102A2000020100C032090400000102020100052475
:102A300000100104240202052406000105240100FF
:102A4000010705820308000209040100020A0000D0
:102A50000007050302400000070583024000000450
:102A600003090434034D006900630072006F0063C2
:102A70000068006900700020005400650063006871
:102A8000006E006F006C006F006700790020004945
:102A9000006E0063002E0034034300440043002016
:102AA00000520053002D0032003300320020004558
:102AB000006D0075006C006100740069006F006EAD
:102AC000002000440065006D006F001C2A5F2A632F
:032AD0002A972A18
:0C2AD4001E0EF66E100EF76E000EF86E6F
:102AE00001010900F5507B6F0900F5507C6F03E18F
:102AF0007B6701D03DD00900F550766F0900F55095
:102B0000776F0900F550786F09000900F550E96EFC
:102B10000900F550EA6E090009000900F550796FC7
:102B20000900F5507A6F09000900F6CF7DF1F7CF63
:102B30007EF1F8CF7FF176C1F6FF77C1F7FF78C15C
:102B4000F8FF0101795302E17A5307E00900F550DB
:102B5000EE6E7907F8E27A07F9D77DC1F6FF7EC1FC
:102B6000F7FF7FC1F8FF01017B07000E7C5BBFD739
:022B7000120051
:0E2B7200036A026A016A006A200EE76ED890BC
:102B80000436053606360736003601360236033679
:102B90000950005C0A5001580B5002580C50035861
:102BA00009E30950005E0A50015A0B50025A0C50BA
:0A2BB000035A042AE72EE4D71200AE
:062BBA00FE0EE3CFE9FF6F
:102BC000FF0EE3CFEAFFE9CFF3FFEACFF4FFFB0EFE
:102BD000E35003E1FC0EE35009E0FB0EE30602E2E2
:0E2BE000FC0EE306FD0EE350EE6EF1D7120080
:022BEE00000ED7
:102BF000F36E00EE00F0030E01D81200EA6002D07E
:0E2C0000EE6AFCD7F350E9601200EE6AFCD7D2
:022C0E0011EEC5
:102C100000F021EE00F0F86A0F9C6AEC15F003EC6E
:0A2C200008F01EEC11F0FBD71200C3
:020000040030CA
:0100000000FF
:0100010032CC
:0100020001FC
:010003001EDE
:0100050000FA
:0100060001F8
:0100080003F4
:01000900C036
:01000A0003F2
:01000B00E014
:01000C0003F0
:01000D0040B2
:00000001FF
