:020000040000FA
:06000000E2EF00F0120027
:020006000000F8
:060008000FEF00F01200F2
:02000E001200DE
:0600180026EF00F01200CB
:02001E00DACF37
:10002000E4FFE2CFDAFFE6529EA00CD09E900001E2
:100030006A2B080E6A5D06E16A6B82A002D082908C
:1000400001D08280E552E5CFDAFF1100D8CFE4FF7E
:10005000E0CFE4FFE46EDACFE4FFE2CFDAFFE6526E
:10006000F2A00ED08050080B01E0010E00016B6F72
:10007000F2906B5105E182A202D0829201D082827D
:10008000E552E5CFDAFFE550E5CFE0FFE5CFD8FF59
:10009000100000016A6B6B6B7E988B9094907E9A37
:1000A0008B929492F286F190F2907986B50EE66E7C
:1000B000B1EC00F0E5529F809E90D08EF28EF28CD3
:0400C000FFD7120054
:0C00C400060EF66E000EF76E000EF86ED1
:1000D00000010900F550656F0900F550666F03E1F6
:1000E000656701D03DD00900F550606F0900F550FB
:1000F000616F0900F550626F09000900F550E96E63
:100100000900F550EA6E090009000900F550636F17
:100110000900F550646F09000900F6CF67F0F7CFCA
:1001200068F0F8CF69F060C0F6FF61C0F7FF62C009
:10013000F8FF0001635302E1645307E00900F55042
:10014000EE6E6307F8E26407F9D767C0F6FF68C090
:10015000F7FF69C0F8FF00016507000E665BBFD7B7
:0201600012008B
:0E016200D9CFE6FFDACFE6FFE1CFD9FFE2CF3B
:10017000DAFFFD0EDB507E0BCD6EFD0EDBAC02D048
:10018000CD8E01D0CD9ECF6ACE6A9E90DBAE02D0DE
:100190009D8001D09D90CD80E552E5CFDAFFE7CF7D
:0401A000D9FF120071
:0C01A400000EF36E00EE00F0030E01D818
:1001B0001200EA6002D0EE6AFCD7F350E960120048
:0401C000EE6AFCD710
:0C01C40011EE00F021EE00F0F86A019C42
:1001D00062EC00F007EC00F049EC00F0FBD71200F5
:020000040030CA
:0100000000FF
:0100010032CC
:0100020001FC
:010003001EDE
:0100050000FA
:0100060001F8
:0100080003F4
:01000900C036
:01000A0003F2
:01000B00E014
:01000C0003F0
:01000D0040B2
:00000001FF
