:020000040000FA
:06000000A0EF13F0120056
:0600080004EF08F01200F5
:060018000CEF08F01200DD
:06100000A0EF13F0120046
:021006001200D6
:0610080091EF10F0120050
:02100E000000E0
:061018009AEF10F0120037
:02101E000100CF
:0C1020000E100000B000000002000000F4
:04102C00D9CFE6FF33
:10103000E1CFD9FFE6520F015F6B626A160E616E57
:101040009F0E5B6F7B0E606E648C5C6B010EE66EB8
:10105000E66AE66A540EE66E0F0EE66E76EC13F064
:101060000B6E050EE15E0B50649CDF6ADF500B6E69
:101070000C6A080E0B5C000E0C5810E2DF50040DD9
:10108000F3CFE9FFF4CFEAFF000EE926020EEA22D1
:10109000EE6AEE6AEE6AEE6ADF2AE8D70F01160EF4
:1010A000536F62A602D06296FCD70001736B786B17
:1010B000796B7A6B6498080E6B6F020E6C6F616BC4
:1010C000606BE552E552E7CFD9FF1200D9CFE6FFBA
:1010D000E1CFD9FFE6520001605117E106D0646A02
:1010E000606A0001606BA194AAD0646A606A160EFF
:1010F000616E0F019F0E5B6F7B0E606E64B602D057
:101100006486FCD70001010E606F600508E164BAD7
:1011100006D0626A606A60806088020E606F62500A
:10112000040B05E06050040B02E06294B9D864A29D
:1011300002D0A19484D06250010B12E06050010BE8
:101140000FE074DF0001040E606F0201200E026FD9
:10115000020E036F080E016F006B8C0E001362907D
:101160006250100B05E06050100B02E087D86298C7
:101170006250400B13E06050400B10E0010EE66E31
:10118000E66A000EE66EE66A730EE66EE66AD7EC75
:1011900011F00B6E060EE15E0B50629C6250200B4C
:1011A00004E06050200B01E04FD86250020B14E0C5
:1011B0006050020B11E0010EE66EE66A000EE66E6C
:1011C000E66AE6687F0EE66ED7EC11F00B6E060E4F
:1011D000E15E0B500F015F6B040E0001E76E6019BA
:1011E000E8AE02D0E73402D0E750605D02E2A1949D
:1011F00026D060A623D0DF6A040EDF5C1FE262A661
:101200001AD063CF80F06296780E0001801502E15B
:101210005CD810D0000EE66EE66A800EE66E000E18
:10122000E66E720EE66EE66AD7EC11F00B6E060EF5
:10123000E15E0B5001D002D0DF2ADED7A194E55247
:10124000E552E7CFD9FF12000F0153A115D063C0BB
:10125000E9FF64C0EAFFEF5080080DE16BC0E9FFD1
:101260006CC0EAFFEF50840806E163C0E9FF64C088
:10127000EAFF8C0EEF6E5391629A120060846298BE
:101280006482000EE66EE66AE66EE66A750EE66E4B
:10129000E66AD7EC11F00B6E060EE15E0B50120001
:1012A000000EE66EE66AE66EE66A740EE66EE66AC2
:1012B000D7EC11F00B6E060EE15E0B506492609459
:1012C00062A402D06294FCD71200D9CFE6FFE1CF2E
:1012D000D9FFE652FD0E000180155AE17E0E801501
:1012E000E8407F0B040DF3CF63F0F4CF64F0000E01
:1012F0006327020E642363C065F064C066F0657501
:1013000063C0E9FF64C0EAFFEF503C0BE842E842EB
:101310000D083CE163C0E9FF64C0EAFF020EE92664
:10132000000EEA22EECF0BF0EFCF0CF0280E0B18D8
:1013300002E1020E0C1828E163C0E9FF64C0EAFF75
:10134000020EE926000EEA22200EEE6E020EED6E6F
:10135000DF6ADF500B6E0C6A080E0B5C000E0C5837
:1013600013E2DF50EA6A280FE96E020EEA22EF501C
:10137000E66EDF50EA6A200FE96E020EEA22E552BD
:10138000E750EF6EDF2AE5D70DD801D02ED805D073
:10139000FD0E8015040801E14ED8E552E552E7CF75
:1013A000D9FF12006BC0E9FF6CC0EAFFEF50800B61
:1013B00005E06BC0E9FF6CC0EAFFEF6A00016F6BEC
:1013C000706B746B756B736BB9D8000EE66EE66A62
:1013D000E66EE66A030EE66EE66AD7EC11F00B6E77
:1013E000060EE15E0B5049EF0CF0020E0001705D3D
:1013F00002E1AFDB1FD06FD8000181511AE165C057
:10140000E9FF66C0EAFFEE52080EEF6E65C0E9FF25
:1014100066C0EAFF020EE926000EEA22200EEE6EFA
:10142000020EED6E65C0E9FF66C0EAFF8C0EEF6E3E
:1014300001D0816B1200D9CFE6FFE1CFD9FFE65290
:101440006BC0E9FF6CC0EAFFEF50400B01E0010EFA
:10145000DF6E00016B75080E605D0DE122C25CFF5E
:101460000F015C51000804E20001100E606F03D010
:101470000001040E606F700528E16BC0E9FF6CC0CD
:10148000EAFF020EE926000EEA22280EEE6E020E98
:10149000ED6ED4DA020E00016F5D07E16BC0E9FF6B
:1014A0006CC0EAFF840EEF6E0FD0DF5007E16BC017
:1014B000E9FF6CC0EAFFC80EEF6E06D06BC0E9FF13
:1014C0006CC0EAFF880EEF6E01D005D8E552E552F8
:1014D000E7CFD9FF1200D9CFE6FFE1CFD9FF020E47
:1014E000E1260001706B6BC0E9FF6CC0EAFFEF6A98
:1014F000040E6B190B6E6CC00CF00BC0DEFF0CC041
:10150000DDFFDECFE9FFDDCFEAFFEF6A78AF0CD079
:101510007B517C1107E005D07CC0FAFF00017B51B4
:10152000F96EFADF0001789F020EE15C02E2E16AE7
:10153000E552E16EE552E7CFD9FF120002012051DA
:10154000600BE842E842E842E842E842000901E074
:1015500058D021510C0A54E00B0A43E00C0A35E044
:10156000010A26E00B0A22E0020A20E0030A1CE03E
:10157000080A10E0010A0CE00F0A08E0030A01E083
:101580003FD00001738F080E606F3BD0C7D839D0B1
:101590007EDB37D00001610E716F000E726F7381B8
:1015A000010E746F738F2DD013D92BD02BD829D067
:1015B00024510001716F726B620E7127000E72234D
:1015C0007381010E746F738F1CD00001738F020141
:1015D0002451EA6A620FE96E000EEA2222C2EFFF8E
:1015E00010D0000EE66EE66AE66EE66A020EE66E61
:1015F000E66AD7EC11F00B6E060EE15E0B5001D0DF
:1016000000D01200D9CFE6FFE1CFD9FF040EE126CA
:101610000201220510E120511F0B00090CE100011D
:10162000738F030E0201215D04E10001010E7F6F43
:1016300002D000017F6B0201225166E120511F0B95
:10164000020862E124510F0B00095EE00001738F74
:10165000020124BF10D024510F0BE96EEA6AD89022
:10166000E936EA36670EE926000EEA22EECFDEFF03
:10167000EDCFDDFF0FD024510F0BE96EEA6AD89051
:10168000E936EA366B0EE926000EEA22EECFDEFFDF
:10169000EDCFDDFF030E215D07E1DECFE9FFDDCFFA
:1016A000EAFF840EEF6E30D024510F0B0C6A530FFB
:1016B0000B6E0F0E0C22020E0BC0DBFF030E0CC0D4
:1016C000DBFF020EDBCFE9FF030EDBCFEAFFEF907B
:1016D00024AF0DD0DECFE9FFDDCFEAFFEF6ADF7484
:1016E000DECFE9FFDDCFEAFF400EEF6E0DD0DECF9B
:1016F000E9FFDDCFEAFF880EEF6EDF74DECFE9FF92
:10170000DDCFEAFFC80EEF6E040EE15C02E2E16A93
:10171000E552E16EE552E7CFD9FF1200800E0201DB
:10172000205D55E10001C00E736F02012351030AD1
:101730002EE0010A0EE0030A03E00001736B47D0BC
:101740000001840E716F240E726F120E746F756B30
:101750003ED02251F66EF76AD890F636F736640E10
:10176000F626250EF7220900F5CF71F00A00F5CF15
:1017700072F0020E0001F76A7125F66E7251F722BF
:101780000900F5CF74F00A00F5CF75F020D0030EF4
:10179000225D1AE22251F66EF76AD890F636F736D5
:1017A000660EF626250EF7220900F5CF71F00A0025
:1017B000F5CF72F071C0F6FF72C0F7FF0800F55068
:1017C0000001746F756B02D00001736B00D01200C2
:1017D000D9CFE6FFE1CFD9FF020EE1260201286B47
:1017E000296B20511F0B020A12E0030A0DE0010AC7
:1017F00001E03BD00001738F0201288100017F05C9
:1018000002E10201288331D00001738F2ED0000144
:10181000738F020124BF10D024510F0BE96EEA6AC6
:10182000D890E936EA36670EE926000EEA22EECFB6
:10183000DEFFEDCFDDFF0FD024510F0BE96EEA6A1A
:10184000D890E936EA366B0EE926000EEA22EECF92
:10185000DEFFEDCFDDFFDECFE9FFDDCFEAFFEF50AA
:10186000040B02E0010E286F00D0000173AF07D017
:10187000280E716F020E726F7381020E746F020E6A
:10188000E15C02E2E16AE552E16EE552E7CFD9FFA1
:1018900012006498000173BF4AD078AF28D0020EBE
:1018A000706F6BC0E9FF6CC0EAFFEE52EF6A6BC06D
:1018B000E9FF6CC0EAFFC80EEF6E65C0E9FF66C0C5
:1018C000EAFFEE52080EEF6E65C0E9FF66C0EAFF60
:1018D000020EE926000EEA22280EEE6E020EED6ED2
:1018E00065C0E9FF66C0EAFFC80EEF6E1FD065C095
:1018F000E9FF66C0EAFFEE52080EEF6E65C0E9FF31
:1019000066C0EAFF020EE926000EEA22200EEE6E05
:10191000020EED6E65C0E9FF66C0EAFF8C0EEF6E49
:101920006BC0E9FF6CC0EAFF840EEF6E86D078BF13
:1019300084D0020120AF59D0000174510201265D0C
:10194000000175510201275904E226C274F027C232
:1019500075F074D80001010E706F65C0E9FF66C0B4
:10196000EAFFEE52080EEF6E65C0E9FF66C0EAFFBF
:10197000020EE926000EEA22200EEE6E020EED6E39
:1019800065C0E9FF66C0EAFF800EEF6E816B63C041
:10199000E9FF64C0EAFFEE52080EEF6E63C0E9FF94
:1019A00064C0EAFF020EE926000EEA22200EEE6E67
:1019B000020EED6E63C0E9FF64C0EAFF840EEF6EB5
:1019C000010E816F6BC0E9FF6CC0EAFF020EE926D1
:1019D000000EEA22280EEE6E020EED6E6BC0E9FFDD
:1019E0006CC0EAFFC80EEF6E28D00001020E706FC7
:1019F0006BC0E9FF6CC0EAFFEE52EF6A6BC0E9FF13
:101A00006CC0EAFFC80EEF6E65C0E9FF66C0EAFF72
:101A1000EE52080EEF6E65C0E9FF66C0EAFF020EE7
:101A2000E926000EEA22280EEE6E020EED6E65C06B
:101A3000E9FF66C0EAFFC80EEF6E1200D9CFE6FFDD
:101A4000E1CFD9FF020EE1260001080E745D000E01
:101A500075590EE274C0DEFF75C0DDFF6F5103E102
:101A6000010E6F6F04D06F0502E1020E6F6F03D09D
:101A7000080EDE6EDD6A6BC0E9FF6CC0EAFFEF9214
:101A80006BC0E9FF6CC0EAFFEF906BC0E9FF6CC070
:101A9000EAFF010EDB50EF126BC0E9FF6CC0EAFFFA
:101AA000EE52DFCFEFFF000EDB50745F010EDB5014
:101AB000755B280E7D6F020E7E6F73B121D0D9CF7A
:101AC000E9FFDACFEAFFEE50ED1019E071C0F6FF42
:101AD00072C0F7FF712B000E72230800F550E66EFE
:101AE0007DC0E9FF7EC0EAFF7D2B000E7E23E5521C
:101AF000E750EF6EDF06010E01E2DB06E0D71FD0F4
:101B0000D9CFE9FFDACFEAFFEE50ED1018E071C04F
:101B1000E9FF72C0EAFF712B000E7223EF50E66EF0
:101B20007DC0E9FF7EC0EAFF7D2B000E7E23E552DB
:101B3000E750EF6EDF06010E01E2DB06E1D7020E91
:101B4000E15C02E2E16AE552E16EE552E7CFD9FFDE
:101B50001200D9CFE6FFE1CFD9FF020EE12663C024
:101B6000E9FF64C0EAFFEE52EFCFDFFFDFCF0BF0FB
:101B70000B500001795D000E7A5903E279C0DFFF56
:101B800009D0DF500B6E0C6A0B50795D796F0C50E9
:101B90007A597A6F010EDB6ADF50F36E010EDBCFEC
:101BA000F4FFF350F45C16E2010EDB50EA6A280FF2
:101BB000E96E020EEA22EF50E66E76C0E9FF77C0CA
:101BC000EAFF762B000E7723E552E750EF6E010E09
:101BD000DB2AE2D7000ED8807955000E7A5528E22C
:101BE00065C0E9FF66C0EAFFEE52080EEF6E65C001
:101BF000E9FF66C0EAFF020EE926000EEA22280E7F
:101C0000EE6E020EED6E63C0E9FF64C0EAFFEF50B6
:101C1000400B07E165C0E9FF66C0EAFFC80EEF6E42
:101C200006D065C0E9FF66C0EAFF880EEF6E25D0DA
:101C300065C0E9FF66C0EAFFEE52080EEF6E65C0B0
:101C4000E9FF66C0EAFF020EE926000EEA22200E36
:101C5000EE6E020EED6E65C0E9FF66C0EAFF840E0F
:101C6000EF6E7B517C1107E005D07CC0FAFF0001CC
:101C70007B51F96EFADF0001789F020EE15C02E20F
:101C8000E16AE552E16EE552E7CFD9FF1200D9CF04
:101C9000E6FFE1CFD9FFE6520001738F010EE66E39
:101CA000E66AE66A540EE66E0F0EE66E76EC13F008
:101CB0000B6E050EE15E0B50DF6ADF500B6E0C6A97
:101CC000080E0B5C000E0C5810E2DF50040DF3CF31
:101CD000E9FFF4CFEAFF000EE926020EEA22EE6ADF
:101CE000EE6AEE6AEE6ADF2AE8D7648C010EE66ED1
:101CF000E66AE66A620EE66E000EE66E76EC13F0B9
:101D00000B6E050EE15E0B50649C0001080E6B6FBC
:101D1000020E6C6F000E636F020E646F63C065F09D
:101D200064C066F022C261F0615103E1100E606F81
:101D300012D0200E606F010EE66EE66A610EE66E4E
:101D4000000EE66E010EE66EE66AD7EC11F00B6E41
:101D5000060EE15E0B50E552E552E7CFD9FF1200C7
:101D6000D9CFE6FFE1CFD9FF020EE126000EDE6EED
:101D7000020EDD6EFD0EDB50E8240D6EFE0EDB5014
:101D8000040DF3500D24040DF3500B6E0C6A020E7B
:101D90000F0B05E0D8900C320B32E806FBE1D8902F
:101DA0000B360C36D8900B360C36D9CFE9FFDACF8C
:101DB000EAFF0B50EE260C50ED22DECFE9FFDDCF1F
:101DC000EAFFEF9EFD0EDB500FE1FE0EEA6ADB3408
:101DD000FE0BEA36E96E670EE926000EEA22DECF38
:101DE000EEFFDDCFEDFF0ED0FE0EEA6ADB34FE0B18
:101DF000EA36E96E6B0EE926000EEA22DECFEEFF30
:101E0000DDCFEDFFDECFE9FFDDCFEAFFEF9CDECFD8
:101E1000E9FFDDCFEAFF040EE926000EEA22EF8C8F
:101E2000020EE15C02E2E16AE552E16EE552E7CFC3
:101E3000D9FF1200D9CFE6FFE1CFD9FF020EE1268C
:101E4000FE0EDB500C6A530F0B6E0F0E0C220BC0F4
:101E5000DEFF0CC0DDFFDECFE9FFDDCFEAFFFD0EC8
:101E6000DBCFEFFFDBA407D0E66AFE0EDBCFE6FF99
:101E700077DFE552E552FD0EDBA208D0010EE66EDB
:101E8000FE0EDBCFE6FF6CDFE552E552020EE15CB1
:101E900002E2E16AE552E16EE552E7CFD9FF1200B6
:101EA000D9CFE6FFE1CFD9FF020EE126FE0EDB50CF
:101EB00020E165C0E9FF66C0EAFFEE52080EEF6E52
:101EC00065C0E9FF66C0EAFF020EE926000EEA22BD
:101ED000200EEE6E020EED6E65C0E9FF66C0EAFFF1
:101EE0008C0EEF6E6BC0E9FF6CC0EAFF840EEF6EE4
:101EF0003DD0FD0EDB50E8240D6EFE0EDB50040DD0
:101F0000F3500D24040DF3CF0BF0F4CF0CF0000EC2
:101F10000B26020E0C220BC0DEFF0CC0DDFF840E70
:101F20000B6EDECFE9FFDDCFEAFF0B50EF12FD0EA7
:101F3000DB50E8240D6EFE0EDB50040DF3500D2433
:101F4000010F040DF3CF0BF0F4CF0CF0000E0B26B5
:101F5000020E0C220BC0DEFF0CC0DDFF840E0B6EE8
:101F6000DECFE9FFDDCFEAFF0B50EF12020EE15C9E
:101F700002E2E16AE552E16EE552E7CFD9FF1200D5
:101F8000D9CFE6FFE1CFD9FF020EE126FD0EDB50EF
:101F90000FE0FE0EEA6ADB34FE0BEA36E96E6B0EEA
:101FA000E926000EEA22EECFDEFFEDCFDDFF0ED0F8
:101FB000FE0EEA6ADB34FE0BEA36E96E670EE926AE
:101FC000000EEA22EECFDEFFEDCFDDFFDECFE9FF30
:101FD000DDCFEAFF020EE926000EEA22FB0EDBCF80
:101FE000EEFFFC0EDBCFEDFFDECFE9FFDDCFEAFF3A
:101FF000EE52FA0EDBCFEFFF400E0B6EDECFE9FFA5
:10200000DDCFEAFF0B50EF16880E0B6EDECFE9FF37
:10201000DDCFEAFF0B50EF12FD0EDB500CE0FE0EA1
:10202000EA6ADB34FE0BEA36E96E6B0EE926000E37
:10203000EA22EF740BD0FE0EEA6ADB34FE0BEA36BE
:10204000E96E670EE926000EEA22EF74DECF0BF090
:10205000DDCF0CF00BC0F3FF0CC0F4FF020EE15C0F
:1020600003E200D0E16AE552E16EE552E7CFD9FF25
:102070001200D9CFE6FFE1CFD9FF64A84ED0FE0E03
:10208000EA6ADB34FE0BEA36E96E6B0EE926000ED7
:10209000EA22EE50EFCFEAFFE96E400EEE16EE6A4E
:1020A000EE6AEE6AFE0EEA6ADB34FE0BEA36E96E91
:1020B0006B0EE926000EEA22EE50EFCFEAFFE96E42
:1020C000EE7CFE0EEA6ADB34FE0BEA36E96E6B0E3E
:1020D000E926000EEA22EF74400E0B6EFE0EEA6A4D
:1020E000DB34FE0BEA36E96E6B0EE926000EEA22BF
:1020F000EE50EFCFEAFFE96E0B50EF16FE0EEA6AE4
:10210000DB34FE0BEA36E96E6B0EE926000EEA229E
:10211000EE50EFCFEAFFE96EEF7CE552E7CFD9FF53
:022120001200AB
:0E212200DACFE4FFE2CFDAFFE652E552E5CF76
:10213000DAFF1100D8CFE4FFE0CFE4FFE46EDACF9E
:10214000E4FFE2CFDAFFE652E552E5CFDAFFE550F1
:10215000E5CFE0FFE5CFD8FF100005D866EC08F02A
:1021600020D8FCD712000F0EC11202D816EF08F0CB
:10217000FC0E8B1694160001010E9D6F8050080B0B
:1021800001E0010E866F8050080B01E0010E876FA1
:10219000986B996B9A6B9B6B7E9E7F90580E9412F6
:1021A000120000019D0502E18BD80CD09E07000EA5
:1021B0009F5BA05BA15B9E519F11A011A11102E149
:1021C000010E9D6F200E0001E76E6019E8AE02D08F
:1021D000E73402D0E750605D03E36450020B01E096
:1021E00001D001D8120000019851991102E1000EAE
:1021F00008D098C0E9FF99C0EAFFEF50800B01E0DA
:10220000010E000936E10201316B326B46D800093C
:1022100004E002013B0E336F02D00201336B8250A7
:10222000080B02E0000E01D02C0E346F8250100B10
:1022300002E0000E01D01D0E356F8250400B02E00F
:10224000000E01D0380E366F376B386B080EE66E15
:10225000310EE66E020EE66E010EE66EE66EC0EC24
:102260000FF00B6E050EE15E0B50F3CF98F0F4CF3C
:1022700099F012008050080B01E0010E0001865D0C
:1022800009E08050080B01E0010E866F80B602D095
:10229000010E02D0000E00D012008050080B01E0A9
:1022A000010E0001875D09E08050080B01E0010E7E
:1022B000876F80B602D0010E02D0000E00D012004F
:1022C0000001B051B11104E1100EB06F270EB16FD3
:1022D000B007000EB15B64A20AD0B051B11106E1A3
:1022E0008B708BA002D08B8201D08B922ED00001FC
:1022F000605103E18B908B9228D0600503E18B80C5
:102300008B8223D0020E605D03E18B808B921DD007
:10231000040E605D03E18B908B8217D0100E605D20
:1023200007E10001B051B11102E18B708B920DD029
:10233000200E605D0AE10001B051B11106E18B7021
:102340008BA002D08B9201D08B821200120012005F
:1023500012001200B6EF12F012001E0EE66E010E11
:10236000E66E1AEC0FF0E552E552010EE66E300E05
:10237000E66E020EE66EE66A010EE66EC0EC0FF047
:102380000B6E050EE15E0B50F3CF9AF0F4CF9BF08D
:10239000120064840001080EA26F070EA36FA2074B
:1023A000000EA35BA251A311FAE164941200D9CFED
:1023B000E6FFE1CFD9FFFD0EDBCF06F0FE0EDBCF4F
:1023C00007F0720E061801E1075033E0E8680618BE
:1023D00002E17F0E07182BE0740E061801E107508A
:1023E00024E0750E061801E107501DE0730E061873
:1023F00001E1075016E0030E061801E107500FE057
:10240000020E061801E1075008E0010E061801E16E
:10241000075001E010D0A1DF0FD09EDF0DD09ADF72
:102420000BD096DF09D092DF07D091DF05D091DF86
:1024300003D0000001D000D0010E00D0E552E7CF5C
:10244000D9FF12000001280E766F020E776F080E7A
:10245000796F7A6B600E7B6F240E7C6F788F120021
:10246000020128A103D08B808B8202D08B908B92AB
:1024700000019D6BE00E9E6F220E9F6F020EA06FFB
:04248000A16B12003A
:0C2484001201000200000008D8045500FE
:1024900001000102000109022900010100C0320906
:1024A0000400000203010100092111010001223F83
:1024B0000007058103080001070501030800010466
:1024C00003090434034D006900630072006F006368
:1024D0000068006900700020005400650063006817
:1024E000006E006F006C006F0067007900200049EB
:1024F000006E0063002E002E034B00650079006221
:10250000006F006100720064002000440065006DEF
:10251000006F00000000000000000000000000004C
:10252000000000000005010906A101050719E029C6
:10253000E71500250175019508810295017508814F
:102540000395057501050819012905910295017585
:1025500003910395067508150025650507190029DF
:0C256000658100C09624BF24C324F7242A
:04256C0002012051F7
:102570001F0B010801E06AD0245101E067D0060E6C
:10258000215D25E12351230A21E0010A11E0030A1C
:1025900001E01DD0000161050AE10001A80E716F84
:1025A000240E726F090E746F756BC00E736F0FD0AF
:1025B000000161050AE10001250E716F250E726FA1
:1025C0003F0E746F756BC00E736F01D000D00201A7
:1025D0002051600BE842E842E842E842E842010844
:1025E00001E034D021510B0A2BE0080A1EE0090A51
:1025F00016E0080A09E00B0A04E0080A01E026D008
:1026000025D022EC12F022D00001AE0E716F000E28
:10261000726F010E746F756BC10E736F17D000016E
:10262000800E736F23C2AEF011D00001AF0E716F38
:10263000000E726F010E746F756B810E736F06D092
:0E2640000001800E736F22C2AFF000D01200B6
:02264E001E0E5E
:10265000F66E100EF76E000EF86E00010900F550D0
:10266000A96F0900F550AA6F03E1A96701D03DD019
:102670000900F550A46F0900F550A56F0900F55049
:10268000A66F09000900F550E96E0900F550EA6EE1
:10269000090009000900F550A76F0900F550A86F5F
:1026A00009000900F6CFABF0F7CFACF0F8CFADF0F2
:1026B000A4C0F6FFA5C0F7FFA6C0F8FF0001A7530E
:1026C00002E1A85307E00900F550EE6EA707F8E213
:1026D000A807F9D7ABC0F6FFACC0F7FFADC0F8FF55
:0C26E0000001A907000EAA5BBFD7120082
:0426EC00FE0EE3CF2C
:1026F000E9FFFF0EE3CFEAFFE9CFF3FFEACFF4FFF4
:10270000FB0EE35003E1FC0EE35009E0FB0EE30691
:1027100002E2FC0EE306FD0EE350EE6EF1D712006E
:10272000000EF36E00EE00F0030E01D81200EA6016
:1027300002D0EE6AFCD7F350E9601200EE6AFCD7D3
:1027400011EE00F021EE00F0F86A0A9C27EC13F07D
:0C27500003EC08F0ADEC10F0FBD7120019
:020000040030CA
:0100000000FF
:0100010032CC
:0100020001FC
:010003001EDE
:0100050000FA
:0100060001F8
:0100080003F4
:01000900C036
:01000A0003F2
:01000B00E014
:01000C0003F0
:01000D0040B2
:00000001FF
